{
  "contractName": "Adoption",
  "abi": [
    {
      "inputs": [],
      "payable": false,
      "stateMutability": "nonpayable",
      "type": "constructor"
    },
    {
      "anonymous": false,
      "inputs": [
        {
          "indexed": false,
          "internalType": "uint256",
          "name": "_itemId",
          "type": "uint256"
        },
        {
          "indexed": true,
          "internalType": "uint256",
          "name": "_bidAmt",
          "type": "uint256"
        }
      ],
      "name": "BidEvent",
      "type": "event"
    },
    {
      "constant": true,
      "inputs": [
        {
          "internalType": "uint256",
          "name": "",
          "type": "uint256"
        }
      ],
      "name": "arrayForItems",
      "outputs": [
        {
          "internalType": "uint256",
          "name": "",
          "type": "uint256"
        }
      ],
      "payable": false,
      "stateMutability": "view",
      "type": "function"
    },
    {
      "constant": true,
      "inputs": [
        {
          "internalType": "uint256",
          "name": "",
          "type": "uint256"
        }
      ],
      "name": "buyers",
      "outputs": [
        {
          "internalType": "address",
          "name": "",
          "type": "address"
        }
      ],
      "payable": false,
      "stateMutability": "view",
      "type": "function"
    },
    {
      "constant": true,
      "inputs": [
        {
          "internalType": "uint256",
          "name": "",
          "type": "uint256"
        }
      ],
      "name": "highestBidders",
      "outputs": [
        {
          "internalType": "address",
          "name": "",
          "type": "address"
        }
      ],
      "payable": false,
      "stateMutability": "view",
      "type": "function"
    },
    {
      "constant": true,
      "inputs": [],
      "name": "itemId",
      "outputs": [
        {
          "internalType": "uint256",
          "name": "",
          "type": "uint256"
        }
      ],
      "payable": false,
      "stateMutability": "view",
      "type": "function"
    },
    {
      "constant": true,
      "inputs": [
        {
          "internalType": "uint256",
          "name": "",
          "type": "uint256"
        }
      ],
      "name": "vehicles",
      "outputs": [
        {
          "internalType": "string",
          "name": "vehicle_brand",
          "type": "string"
        },
        {
          "internalType": "string",
          "name": "vehicle_model",
          "type": "string"
        },
        {
          "internalType": "string",
          "name": "description",
          "type": "string"
        },
        {
          "internalType": "uint256",
          "name": "buy_now_price",
          "type": "uint256"
        },
        {
          "internalType": "uint256",
          "name": "starting_price",
          "type": "uint256"
        },
        {
          "internalType": "uint256",
          "name": "min_incr",
          "type": "uint256"
        },
        {
          "internalType": "uint256",
          "name": "offer_price",
          "type": "uint256"
        }
      ],
      "payable": false,
      "stateMutability": "view",
      "type": "function"
    },
    {
      "constant": false,
      "inputs": [
        {
          "internalType": "string",
          "name": "vehicle_brand",
          "type": "string"
        },
        {
          "internalType": "string",
          "name": "vehicle_model",
          "type": "string"
        },
        {
          "internalType": "string",
          "name": "description",
          "type": "string"
        },
        {
          "internalType": "uint256",
          "name": "buy_now_price",
          "type": "uint256"
        },
        {
          "internalType": "uint256",
          "name": "starting_price",
          "type": "uint256"
        },
        {
          "internalType": "uint256",
          "name": "min_incr",
          "type": "uint256"
        },
        {
          "internalType": "uint256",
          "name": "offer_price",
          "type": "uint256"
        }
      ],
      "name": "addItem",
      "outputs": [],
      "payable": false,
      "stateMutability": "nonpayable",
      "type": "function"
    },
    {
      "constant": false,
      "inputs": [
        {
          "internalType": "uint256",
          "name": "vehicleId",
          "type": "uint256"
        }
      ],
      "name": "buyNow",
      "outputs": [
        {
          "internalType": "uint256",
          "name": "",
          "type": "uint256"
        }
      ],
      "payable": false,
      "stateMutability": "nonpayable",
      "type": "function"
    },
    {
      "constant": true,
      "inputs": [],
      "name": "getBuyers",
      "outputs": [
        {
          "internalType": "address[16]",
          "name": "",
          "type": "address[16]"
        }
      ],
      "payable": false,
      "stateMutability": "view",
      "type": "function"
    },
    {
      "constant": true,
      "inputs": [],
      "name": "getItemCount",
      "outputs": [
        {
          "internalType": "uint256",
          "name": "",
          "type": "uint256"
        }
      ],
      "payable": false,
      "stateMutability": "pure",
      "type": "function"
    },
    {
      "constant": true,
      "inputs": [
        {
          "internalType": "uint256",
          "name": "_itemId",
          "type": "uint256"
        }
      ],
      "name": "getItemName",
      "outputs": [
        {
          "internalType": "string",
          "name": "",
          "type": "string"
        }
      ],
      "payable": false,
      "stateMutability": "view",
      "type": "function"
    },
    {
      "constant": true,
      "inputs": [
        {
          "internalType": "uint256",
          "name": "_itemId",
          "type": "uint256"
        }
      ],
      "name": "getItemPrice",
      "outputs": [
        {
          "internalType": "uint256",
          "name": "",
          "type": "uint256"
        }
      ],
      "payable": false,
      "stateMutability": "view",
      "type": "function"
    },
    {
      "constant": true,
      "inputs": [
        {
          "internalType": "uint256",
          "name": "_itemId",
          "type": "uint256"
        }
      ],
      "name": "getItemIncrement",
      "outputs": [
        {
          "internalType": "uint256",
          "name": "",
          "type": "uint256"
        }
      ],
      "payable": false,
      "stateMutability": "view",
      "type": "function"
    },
    {
      "constant": true,
      "inputs": [
        {
          "internalType": "uint256",
          "name": "_itemId",
          "type": "uint256"
        }
      ],
      "name": "getPercentIncrease",
      "outputs": [
        {
          "internalType": "uint256",
          "name": "",
          "type": "uint256"
        }
      ],
      "payable": false,
      "stateMutability": "view",
      "type": "function"
    },
    {
      "constant": false,
      "inputs": [
        {
          "internalType": "uint256",
          "name": "_itemId",
          "type": "uint256"
        },
        {
          "internalType": "uint256",
          "name": "_bidAmt",
          "type": "uint256"
        }
      ],
      "name": "placeOffer",
      "outputs": [
        {
          "internalType": "uint256",
          "name": "",
          "type": "uint256"
        }
      ],
      "payable": false,
      "stateMutability": "nonpayable",
      "type": "function"
    },
    {
      "constant": true,
      "inputs": [
        {
          "internalType": "uint256",
          "name": "_itemId",
          "type": "uint256"
        },
        {
          "internalType": "uint256",
          "name": "_bidAmt",
          "type": "uint256"
        }
      ],
      "name": "check_bid",
      "outputs": [
        {
          "internalType": "bool",
          "name": "",
          "type": "bool"
        }
      ],
      "payable": false,
      "stateMutability": "view",
      "type": "function"
    },
    {
      "constant": true,
      "inputs": [
        {
          "internalType": "uint256",
          "name": "_itemId",
          "type": "uint256"
        },
        {
          "internalType": "uint256",
          "name": "_bidAmt",
          "type": "uint256"
        }
      ],
      "name": "check_increment",
      "outputs": [
        {
          "internalType": "bool",
          "name": "",
          "type": "bool"
        }
      ],
      "payable": false,
      "stateMutability": "view",
      "type": "function"
    },
    {
      "constant": true,
      "inputs": [
        {
          "internalType": "uint256",
          "name": "_itemId",
          "type": "uint256"
        },
        {
          "internalType": "address",
          "name": "person_wallet",
          "type": "address"
        }
      ],
      "name": "check_highest_bidder",
      "outputs": [
        {
          "internalType": "bool",
          "name": "",
          "type": "bool"
        }
      ],
      "payable": false,
      "stateMutability": "view",
      "type": "function"
    },
    {
      "constant": true,
      "inputs": [],
      "name": "getAllPrices",
      "outputs": [
        {
          "internalType": "uint256[10]",
          "name": "",
          "type": "uint256[10]"
        }
      ],
      "payable": false,
      "stateMutability": "view",
      "type": "function"
    },
    {
      "constant": true,
      "inputs": [],
      "name": "getAllIncrease",
      "outputs": [
        {
          "internalType": "uint256[10]",
          "name": "",
          "type": "uint256[10]"
        }
      ],
      "payable": false,
      "stateMutability": "view",
      "type": "function"
    },
    {
      "constant": true,
      "inputs": [],
      "name": "getAllIncreament",
      "outputs": [
        {
          "internalType": "uint256[10]",
          "name": "",
          "type": "uint256[10]"
        }
      ],
      "payable": false,
      "stateMutability": "view",
      "type": "function"
    }
  ],
  "bytecode": "0x60806040526000601a553480156200001657600080fd5b50620000d16040518060400160405280600381526020017f424d5700000000000000000000000000000000000000000000000000000000008152506040518060400160405280600281526020017f4d320000000000000000000000000000000000000000000000000000000000008152506040518060400160405280600e81526020017f6e65656420696e666f206865726500000000000000000000000000000000000081525060286014600260146200076960201b60201c565b6200018c6040518060400160405280600881526020017f4d657263656465730000000000000000000000000000000000000000000000008152506040518060400160405280600381526020017f47545200000000000000000000000000000000000000000000000000000000008152506040518060400160405280600e81526020017f6e65656420696e666f206865726500000000000000000000000000000000000081525061019060c8601460c86200076960201b60201c565b620002476040518060400160405280600581526020017f486f6e64610000000000000000000000000000000000000000000000000000008152506040518060400160405280600c81526020017f436976696320547970652d5200000000000000000000000000000000000000008152506040518060400160405280600e81526020017f6e65656420696e666f206865726500000000000000000000000000000000000081525061012c6096602360966200076960201b60201c565b620003026040518060400160405280600a81526020017f566f6c6b73776167656e000000000000000000000000000000000000000000008152506040518060400160405280600881526020017f476f6c66206774690000000000000000000000000000000000000000000000008152506040518060400160405280600e81526020017f6e65656420696e666f206865726500000000000000000000000000000000000081525061012c6096602360966200076960201b60201c565b620003bc6040518060400160405280600381526020017f424d5700000000000000000000000000000000000000000000000000000000008152506040518060400160405280600281526020017f4d330000000000000000000000000000000000000000000000000000000000008152506040518060400160405280600e81526020017f6e65656420696e666f206865726500000000000000000000000000000000000081525060286014600260146200076960201b60201c565b620004776040518060400160405280600881526020017f4d657263656465730000000000000000000000000000000000000000000000008152506040518060400160405280600381526020017f63363300000000000000000000000000000000000000000000000000000000008152506040518060400160405280600e81526020017f6e65656420696e666f206865726500000000000000000000000000000000000081525061019060c8601460c86200076960201b60201c565b620005326040518060400160405280600581526020017f486f6e64610000000000000000000000000000000000000000000000000000008152506040518060400160405280600581526020017f73323030300000000000000000000000000000000000000000000000000000008152506040518060400160405280600e81526020017f6e65656420696e666f206865726500000000000000000000000000000000000081525061012c6096602360966200076960201b60201c565b620005ed6040518060400160405280600a81526020017f566f6c6b73776167656e000000000000000000000000000000000000000000008152506040518060400160405280600681526020017f476f6c66207200000000000000000000000000000000000000000000000000008152506040518060400160405280600e81526020017f6e65656420696e666f206865726500000000000000000000000000000000000081525061012c6096602360966200076960201b60201c565b620006a86040518060400160405280600481526020017f466f7264000000000000000000000000000000000000000000000000000000008152506040518060400160405280600481526020017f66313530000000000000000000000000000000000000000000000000000000008152506040518060400160405280600e81526020017f6e65656420696e666f206865726500000000000000000000000000000000000081525061012c6096602360966200076960201b60201c565b620007636040518060400160405280600381526020017f52616d00000000000000000000000000000000000000000000000000000000008152506040518060400160405280600481526020017f31353030000000000000000000000000000000000000000000000000000000008152506040518060400160405280600e81526020017f6e65656420696e666f206865726500000000000000000000000000000000000081525061012c6096602360966200076960201b60201c565b62000958565b6040518060e0016040528088815260200187815260200186815260200185815260200184815260200183815260200182815250601b6000601a5481526020019081526020016000206000820151816000019080519060200190620007cf929190620008a9565b506020820151816001019080519060200190620007ee929190620008a9565b5060408201518160020190805190602001906200080d929190620008a9565b50606082015181600301556080820151816004015560a0820151816005015560c082015181600601559050506000601c6000601a54815260200190815260200160002060006101000a81548173ffffffffffffffffffffffffffffffffffffffff021916908373ffffffffffffffffffffffffffffffffffffffff160217905550601a6000815480929190600101919050555050505050505050565b828054600181600116156101000203166002900490600052602060002090601f016020900481019282601f10620008ec57805160ff19168380011785556200091d565b828001600101855582156200091d579182015b828111156200091c578251825591602001919060010190620008ff565b5b5090506200092c919062000930565b5090565b6200095591905b808211156200095157600081600090555060010162000937565b5090565b90565b61195580620009686000396000f3fe608060405234801561001057600080fd5b506004361061012c5760003560e01c8063a14acf00116100ad578063d945db0b11610071578063d945db0b14610871578063d9561a91146108b3578063eebcd7311461095a578063f2aa82181461099c578063f64bfaba14610a0a5761012c565b8063a14acf00146105d6578063a95902b214610626578063b8ba95fa14610672578063ca6158cb1461080d578063d36c63f81461082b5761012c565b80634c4df870116100f45780634c4df870146104805780635d45a7a1146104c25780636df83a561461050457806377484aae1461054a5780637749cf23146105b85761012c565b806308a0f32f146101315780631c6076bb146101735780633c7c7abb146101c3578063445df9d6146103d457806349a027f61461041a575b600080fd5b61015d6004803603602081101561014757600080fd5b8101908080359060200190929190505050610a50565b6040518082815260200191505060405180910390f35b6101a96004803603604081101561018957600080fd5b810190808035906020019092919080359060200190929190505050610ac1565b604051808215151515815260200191505060405180910390f35b6103d2600480360360e08110156101d957600080fd5b81019080803590602001906401000000008111156101f657600080fd5b82018360208201111561020857600080fd5b8035906020019184600183028401116401000000008311171561022a57600080fd5b91908080601f016020809104026020016040519081016040528093929190818152602001838380828437600081840152601f19601f8201169050808301925050505050505091929192908035906020019064010000000081111561028d57600080fd5b82018360208201111561029f57600080fd5b803590602001918460018302840111640100000000831117156102c157600080fd5b91908080601f016020809104026020016040519081016040528093929190818152602001838380828437600081840152601f19601f8201169050808301925050505050505091929192908035906020019064010000000081111561032457600080fd5b82018360208201111561033657600080fd5b8035906020019184600183028401116401000000008311171561035857600080fd5b91908080601f016020809104026020016040519081016040528093929190818152602001838380828437600081840152601f19601f82011690508083019250505050505050919291929080359060200190929190803590602001909291908035906020019092919080359060200190929190505050610af5565b005b6103dc610c2f565b6040518082600a60200280838360005b838110156104075780820151818401526020810190506103ec565b5050505090500191505060405180910390f35b6104666004803603604081101561043057600080fd5b8101908080359060200190929190803573ffffffffffffffffffffffffffffffffffffffff169060200190929190505050610d04565b604051808215151515815260200191505060405180910390f35b6104ac6004803603602081101561049657600080fd5b8101908080359060200190929190505050610d81565b6040518082815260200191505060405180910390f35b6104ee600480360360208110156104d857600080fd5b8101908080359060200190929190505050610e23565b6040518082815260200191505060405180910390f35b61050c610ec5565b6040518082600a60200280838360005b8381101561053757808201518184015260208101905061051c565b5050505090500191505060405180910390f35b6105766004803603602081101561056057600080fd5b8101908080359060200190929190505050610f9a565b604051808273ffffffffffffffffffffffffffffffffffffffff1673ffffffffffffffffffffffffffffffffffffffff16815260200191505060405180910390f35b6105c0610fcd565b6040518082815260200191505060405180910390f35b61060c600480360360408110156105ec57600080fd5b810190808035906020019092919080359060200190929190505050610fd6565b604051808215151515815260200191505060405180910390f35b61065c6004803603604081101561063c57600080fd5b810190808035906020019092919080359060200190929190505050611027565b6040518082815260200191505060405180910390f35b61069e6004803603602081101561068857600080fd5b8101908080359060200190929190505050611276565b6040518080602001806020018060200188815260200187815260200186815260200185815260200184810384528b818151815260200191508051906020019080838360005b838110156106fe5780820151818401526020810190506106e3565b50505050905090810190601f16801561072b5780820380516001836020036101000a031916815260200191505b5084810383528a818151815260200191508051906020019080838360005b83811015610764578082015181840152602081019050610749565b50505050905090810190601f1680156107915780820380516001836020036101000a031916815260200191505b50848103825289818151815260200191508051906020019080838360005b838110156107ca5780820151818401526020810190506107af565b50505050905090810190601f1680156107f75780820380516001836020036101000a031916815260200191505b509a505050505050505050505060405180910390f35b610815611480565b6040518082815260200191505060405180910390f35b610833611486565b6040518082600a60200280838360005b8381101561085e578082015181840152602081019050610843565b5050505090500191505060405180910390f35b61089d6004803603602081101561088757600080fd5b810190808035906020019092919050505061155b565b6040518082815260200191505060405180910390f35b6108df600480360360208110156108c957600080fd5b8101908080359060200190929190505050611573565b6040518080602001828103825283818151815260200191508051906020019080838360005b8381101561091f578082015181840152602081019050610904565b50505050905090810190601f16801561094c5780820380516001836020036101000a031916815260200191505b509250505060405180910390f35b6109866004803603602081101561097057600080fd5b81019080803590602001909291905050506116ae565b6040518082815260200191505060405180910390f35b6109c8600480360360208110156109b257600080fd5b8101908080359060200190929190505050611703565b604051808273ffffffffffffffffffffffffffffffffffffffff1673ffffffffffffffffffffffffffffffffffffffff16815260200191505060405180910390f35b610a12611736565b6040518082601060200280838360005b83811015610a3d578082015181840152602081019050610a22565b5050505090500191505060405180910390f35b6000808210158015610a635750600f8211155b610a6c57600080fd5b3360008360108110610a7a57fe5b0160006101000a81548173ffffffffffffffffffffffffffffffffffffffff021916908373ffffffffffffffffffffffffffffffffffffffff160217905550819050919050565b6000601b600084815260200190815260200160002060060154821115610aea5760019050610aef565b600090505b92915050565b6040518060e0016040528088815260200187815260200186815260200185815260200184815260200183815260200182815250601b6000601a5481526020019081526020016000206000820151816000019080519060200190610b599291906117b7565b506020820151816001019080519060200190610b769291906117b7565b506040820151816002019080519060200190610b939291906117b7565b50606082015181600301556080820151816004015560a0820151816005015560c082015181600601559050506000601c6000601a54815260200190815260200160002060006101000a81548173ffffffffffffffffffffffffffffffffffffffff021916908373ffffffffffffffffffffffffffffffffffffffff160217905550601a6000815480929190600101919050555050505050505050565b610c37611837565b610c3f611837565b60008090505b600a811015610cfc573073ffffffffffffffffffffffffffffffffffffffff16634c4df870826040518263ffffffff1660e01b81526004018082815260200191505060206040518083038186803b158015610c9f57600080fd5b505afa158015610cb3573d6000803e3d6000fd5b505050506040513d6020811015610cc957600080fd5b81019080805190602001909291905050508282600a8110610ce657fe5b6020020181815250508080600101915050610c45565b508091505090565b6000601c600084815260200190815260200160002060009054906101000a900473ffffffffffffffffffffffffffffffffffffffff1673ffffffffffffffffffffffffffffffffffffffff168273ffffffffffffffffffffffffffffffffffffffff161415610d765760009050610d7b565b600190505b92915050565b6000808210158015610d935750600a82105b610e05576040517f08c379a00000000000000000000000000000000000000000000000000000000081526004018080602001828103825260138152602001807f4974656d20646f6573206e6f742065786973740000000000000000000000000081525060200191505060405180910390fd5b601b6000838152602001908152602001600020600601549050919050565b6000808210158015610e355750600a82105b610ea7576040517f08c379a00000000000000000000000000000000000000000000000000000000081526004018080602001828103825260138152602001807f4974656d20646f6573206e6f742065786973740000000000000000000000000081525060200191505060405180910390fd5b601b6000838152602001908152602001600020600501549050919050565b610ecd611837565b610ed5611837565b60008090505b600a811015610f92573073ffffffffffffffffffffffffffffffffffffffff1663eebcd731826040518263ffffffff1660e01b81526004018082815260200191505060206040518083038186803b158015610f3557600080fd5b505afa158015610f49573d6000803e3d6000fd5b505050506040513d6020811015610f5f57600080fd5b81019080805190602001909291905050508282600a8110610f7c57fe5b6020020181815250508080600101915050610edb565b508091505090565b601c6020528060005260406000206000915054906101000a900473ffffffffffffffffffffffffffffffffffffffff1681565b6000600a905090565b600080601b60008581526020019081526020016000206006015483039050601b600085815260200190815260200160002060050154811061101b576001915050611021565b60009150505b92915050565b60008083101580156110395750600a83105b6110ab576040517f08c379a000000000000000000000000000000000000000000000000000000000815260040180806020018281038252601a8152602001807f42696464696e67206f6e20616e20696e76616c6964206974656d00000000000081525060200191505060405180910390fd5b6110b58383610ac1565b61110a576040517f08c379a000000000000000000000000000000000000000000000000000000000815260040180806020018281038252602e8152602001806118f3602e913960400191505060405180910390fd5b6111148383610fd6565b611169576040517f08c379a000000000000000000000000000000000000000000000000000000000815260040180806020018281038252602c8152602001806118a3602c913960400191505060405180910390fd5b6111738333610d04565b6111c8576040517f08c379a00000000000000000000000000000000000000000000000000000000081526004018080602001828103825260248152602001806118cf6024913960400191505060405180910390fd5b81601b60008581526020019081526020016000206006018190555033601c600085815260200190815260200160002060006101000a81548173ffffffffffffffffffffffffffffffffffffffff021916908373ffffffffffffffffffffffffffffffffffffffff160217905550817f7b0140573d213f42228ee5bf51487a8b9a9e85e0f8d61506811f7af74afcddc8846040518082815260200191505060405180910390a282905092915050565b601b602052806000526040600020600091509050806000018054600181600116156101000203166002900480601f0160208091040260200160405190810160405280929190818152602001828054600181600116156101000203166002900480156113225780601f106112f757610100808354040283529160200191611322565b820191906000526020600020905b81548152906001019060200180831161130557829003601f168201915b505050505090806001018054600181600116156101000203166002900480601f0160208091040260200160405190810160405280929190818152602001828054600181600116156101000203166002900480156113c05780601f10611395576101008083540402835291602001916113c0565b820191906000526020600020905b8154815290600101906020018083116113a357829003601f168201915b505050505090806002018054600181600116156101000203166002900480601f01602080910402602001604051908101604052809291908181526020018280546001816001161561010002031660029004801561145e5780601f106114335761010080835404028352916020019161145e565b820191906000526020600020905b81548152906001019060200180831161144157829003601f168201915b5050505050908060030154908060040154908060050154908060060154905087565b601a5481565b61148e611837565b611496611837565b60008090505b600a811015611553573073ffffffffffffffffffffffffffffffffffffffff16635d45a7a1826040518263ffffffff1660e01b81526004018082815260200191505060206040518083038186803b1580156114f657600080fd5b505afa15801561150a573d6000803e3d6000fd5b505050506040513d602081101561152057600080fd5b81019080805190602001909291905050508282600a811061153d57fe5b602002018181525050808060010191505061149c565b508091505090565b601081600a811061156857fe5b016000915090505481565b6060600082101580156115865750600a82105b6115f8576040517f08c379a00000000000000000000000000000000000000000000000000000000081526004018080602001828103825260138152602001807f4974656d20646f6573206e6f742065786973740000000000000000000000000081525060200191505060405180910390fd5b601b60008381526020019081526020016000206001018054600181600116156101000203166002900480601f0160208091040260200160405190810160405280929190818152602001828054600181600116156101000203166002900480156116a25780601f10611677576101008083540402835291602001916116a2565b820191906000526020600020905b81548152906001019060200180831161168557829003601f168201915b50505050509050919050565b600080601b60008481526020019081526020016000206006015490506000601b6000858152602001908152602001600020600401549050600081606483850302816116f557fe5b049050809350505050919050565b6000816010811061171057fe5b016000915054906101000a900473ffffffffffffffffffffffffffffffffffffffff1681565b61173e61185a565b60006010806020026040519081016040528092919082601080156117ad576020028201915b8160009054906101000a900473ffffffffffffffffffffffffffffffffffffffff1673ffffffffffffffffffffffffffffffffffffffff1681526020019060010190808311611763575b5050505050905090565b828054600181600116156101000203166002900490600052602060002090601f016020900481019282601f106117f857805160ff1916838001178555611826565b82800160010185558215611826579182015b8281111561182557825182559160200191906001019061180a565b5b509050611833919061187d565b5090565b604051806101400160405280600a90602082028038833980820191505090505090565b604051806102000160405280601090602082028038833980820191505090505090565b61189f91905b8082111561189b576000816000905550600101611883565b5090565b9056fe426964206973206e6f7420656e6f756768206261736564206f6e206d696e696d756d20696e6372656d656e74506572736f6e2062696464696e6720697320746865206869676865737420626964646572426964206973206c6f776572206f7220657175616c20746f207468652068696768657374206269642076616c7565a265627a7a72315820703998a2567b210d510f00fe6a5ada2ee7fc2be0b1277ce1aa48088a6cc0cfa064736f6c63430005100032",
  "source": "pragma solidity ^0.5.0;\n\ncontract Adoption {\n    struct Item{\t\t\t\n        string vehicle_brand; // vehicle's brand\n\t\tstring vehicle_model; // which specific model is this vehicle\n        string description; // information about a vehicle, e.g. production year, mileage\n        uint buy_now_price;\n\t\tuint starting_price; // starting price\n\t\tuint min_incr; // minimum increment for a bid\n\t\tuint offer_price;  // current price of item\n\t}\n\n    address[16] public buyers; // array of ethereum addresses\n    uint constant carCount = 10;\n    uint[carCount] public arrayForItems;\n\tuint public itemId = 0;\n    mapping(uint => Item) public vehicles; // item hash table\n    mapping(uint => address) public highestBidders; // highest bidders hash table \n    event BidEvent(uint _itemId, uint indexed _bidAmt); // Declaring events which help us use ethereum's logging facility\n\n    \n    constructor() public {\t\n\t\taddItem(\"BMW\", \"M2\", \"need info here\", 40, 20, 2, 20);\n\t\taddItem(\"Mercedes\", \"GTR\", \"need info here\", 400, 200, 20, 200);\n\t\taddItem(\"Honda\", \"Civic Type-R\", \"need info here\", 300, 150, 35, 150);\n\t\taddItem(\"Volkswagen\", \"Golf gti\", \"need info here\", 300, 150, 35, 150);\n        addItem(\"BMW\", \"M3\", \"need info here\", 40, 20, 2, 20);\n\t\taddItem(\"Mercedes\", \"c63\", \"need info here\", 400, 200, 20, 200);\n\t\taddItem(\"Honda\", \"s2000\", \"need info here\", 300, 150, 35, 150);\n\t\taddItem(\"Volkswagen\", \"Golf r\", \"need info here\", 300, 150, 35, 150);\n        addItem(\"Ford\", \"f150\", \"need info here\", 300, 150, 35, 150);\n        addItem(\"Ram\", \"1500\", \"need info here\", 300, 150, 35, 150);\n\t}\n    function addItem (string memory vehicle_brand, string memory vehicle_model, string memory description, uint buy_now_price, uint starting_price, uint min_incr, uint offer_price) public { \t\n\t\tvehicles[itemId] = Item(vehicle_brand, vehicle_model, description, buy_now_price, starting_price, min_incr, offer_price);\n\t\thighestBidders[itemId] = address(0);\n\t\titemId ++;\n\t}\n\n    function buyNow(uint vehicleId) public returns (uint){\n     require(vehicleId >= 0 && vehicleId <=15); // use require() to make sure ID is in range.\n     buyers[vehicleId] = msg.sender; // mes.sender is the person called this function\n     return vehicleId; // send petId back as confirmation\n     }\n\n    function getBuyers() public view returns (address[16] memory){\n     // memory gives the data loation for the variable, \"adopers\" is in memory\n     return buyers;\n    }\n\n    function getItemCount () public pure returns (uint) {\n\t\treturn carCount;\n\t}\n\t\n\n\t// Function to get the name of an item using its item id\n\tfunction getItemName (uint _itemId) public view returns (string memory) {\n\t\trequire(_itemId >= 0 && _itemId < carCount, \"Item does not exist\"); // the item id must be greater than 0 but less or equal to the total count\n\n\t\treturn vehicles[_itemId].vehicle_model;\n\t}\n\n\n\t// Function to get the highest current price of an item using its item id\n\tfunction getItemPrice (uint _itemId) public view returns (uint) {\n\t\trequire(_itemId >= 0 && _itemId < carCount, \"Item does not exist\"); // the item id must be greater than 0 but less or equal to the total count\n\t\treturn vehicles[_itemId].offer_price;\n\t}\n\t\n\n\t// Function to get the min_increment of an item using its item id\n\tfunction getItemIncrement (uint _itemId) public view returns (uint) {\n\t\trequire(_itemId >= 0 && _itemId < carCount, \"Item does not exist\"); // the item id must be greater than 0 but less or equal to the total count\n\n\t\treturn vehicles[_itemId].min_incr;\n\t}\n\n    function getPercentIncrease (uint _itemId) public view returns (uint) {\n\t\tuint auctionPrice = vehicles[_itemId].offer_price;\n\t\tuint basePrice = vehicles[_itemId].starting_price;\n\t\tuint percentIncrease = (auctionPrice - basePrice)*100/basePrice;\n\n\t\treturn percentIncrease;\n\t}\n\n  // Function to place a bid\n    function placeOffer (uint _itemId, uint _bidAmt) public returns (uint) {\n        // Requirements \n\t\trequire(_itemId >= 0 && _itemId < carCount, \"Bidding on an invalid item\"); // the item id must be greater than 0 but less than the total count\n\t\t\n\t\trequire(check_bid (_itemId, _bidAmt),\"Bid is lower or equal to the highest bid value\"); // the bid should be higher or equal to the current\n\t\t\n\t\trequire(check_increment (_itemId, _bidAmt),\"Bid is not enough based on minimum increment\"); // make sure that the increment is greater than or equal to the minimum increment for the auction item\n\n\t\trequire(check_highest_bidder(_itemId, msg.sender), \"Person bidding is the highest bidder\"); // make sure that person bidding isn't already highest bidder\n\n        vehicles[_itemId].offer_price = _bidAmt; // replace the current price with the new bid amount\n\t\thighestBidders[_itemId] = msg.sender; // replace the highest bidder for that item id with the new highest bidder\n\n\t\temit BidEvent(_itemId, _bidAmt); // logs the bid event on ethereum EVM\n\n        return _itemId; // return the item back \t\n    }\n\n\n    // Function to check if the bid is greater than highest bid\n\tfunction check_bid (uint _itemId, uint _bidAmt) public view returns (bool) {\n\t\tif (_bidAmt > vehicles[_itemId].offer_price) return true;\n\t\telse return false;\n\t}\n\t\n\t\n    // Function to check if the difference is greater to minimum increment value\n\tfunction check_increment (uint _itemId, uint _bidAmt) public view returns (bool) {\n\t\tuint diff;\n\t\tdiff = _bidAmt - vehicles[_itemId].offer_price;\n\t\tif (diff >= vehicles[_itemId].min_incr) return true;\n\t\telse return false;\n\t}\n\t\n\n\t// Function to check if person bidding is the highest bidder\n\tfunction check_highest_bidder (uint _itemId, address person_wallet) public view returns (bool) {\n\t\tif (person_wallet == highestBidders[_itemId]) {\n\t\t\treturn false;\n\t\t} else {\n\t\t\treturn true;\n\t\t}\n\t}\n\n\t// Function to get array of prices of all items in auction as an array\n\tfunction getAllPrices() public view returns (uint[carCount] memory) {\n        uint[carCount] memory result;\n        for (uint i=0;i < carCount; i++) {\n            result[i] = this.getItemPrice(i);\n        }\n\t\treturn result;\n\t}\n\n\n\t// Function to get array of increase in percentages of all items in auction as an array\n\tfunction getAllIncrease () public view returns (uint[carCount] memory) {\n\t\tuint[carCount] memory result;\n        for (uint i=0;i < carCount; i++) {\n            result[i] = this.getPercentIncrease(i);\n        }\n\t\treturn result;\n\t}\n\n\n\t// Function to get array of increments of all items in auction as an array\n\tfunction getAllIncreament () public view returns (uint[carCount] memory) {\n\t\tuint[carCount] memory result;\n        for (uint i=0;i < carCount; i++) {\n            result[i] = this.getItemIncrement(i);\n        }\n\t\treturn result;\n\t}\n}\n",
  "sourcePath": "/Users/zijianchen/Desktop/pet-shop-box-master/contracts/Adoption.sol",
  "compiler": {
    "name": "solc",
    "version": "0.5.16+commit.9c3226ce.Emscripten.clang"
  },
  "schemaVersion": "3.4.4",
  "updatedAt": "2022-04-25T16:44:01.057Z",
  "devdoc": {
    "methods": {}
  },
  "userdoc": {
    "methods": {}
  }
}