{
  "contractName": "Adoption",
  "abi": [
    {
      "inputs": [],
      "payable": false,
      "stateMutability": "nonpayable",
      "type": "constructor"
    },
    {
      "anonymous": false,
      "inputs": [
        {
          "indexed": false,
          "internalType": "uint256",
          "name": "_vehicleId",
          "type": "uint256"
        },
        {
          "indexed": true,
          "internalType": "uint256",
          "name": "_offerAmount",
          "type": "uint256"
        }
      ],
      "name": "offerPlacement",
      "type": "event"
    },
    {
      "constant": true,
      "inputs": [
        {
          "internalType": "uint256",
          "name": "",
          "type": "uint256"
        }
      ],
      "name": "arrayForItems",
      "outputs": [
        {
          "internalType": "uint256",
          "name": "",
          "type": "uint256"
        }
      ],
      "payable": false,
      "stateMutability": "view",
      "type": "function"
    },
    {
      "constant": true,
      "inputs": [
        {
          "internalType": "uint256",
          "name": "",
          "type": "uint256"
        }
      ],
      "name": "buyers",
      "outputs": [
        {
          "internalType": "address",
          "name": "",
          "type": "address"
        }
      ],
      "payable": false,
      "stateMutability": "view",
      "type": "function"
    },
    {
      "constant": true,
      "inputs": [
        {
          "internalType": "uint256",
          "name": "",
          "type": "uint256"
        }
      ],
      "name": "highestOfferers",
      "outputs": [
        {
          "internalType": "address",
          "name": "",
          "type": "address"
        }
      ],
      "payable": false,
      "stateMutability": "view",
      "type": "function"
    },
    {
      "constant": true,
      "inputs": [],
      "name": "itemId",
      "outputs": [
        {
          "internalType": "uint256",
          "name": "",
          "type": "uint256"
        }
      ],
      "payable": false,
      "stateMutability": "view",
      "type": "function"
    },
    {
      "constant": true,
      "inputs": [],
      "name": "numOfPurchases",
      "outputs": [
        {
          "internalType": "uint256",
          "name": "",
          "type": "uint256"
        }
      ],
      "payable": false,
      "stateMutability": "view",
      "type": "function"
    },
    {
      "constant": true,
      "inputs": [
        {
          "internalType": "uint256",
          "name": "",
          "type": "uint256"
        }
      ],
      "name": "vehicles",
      "outputs": [
        {
          "internalType": "string",
          "name": "vehicle_brand",
          "type": "string"
        },
        {
          "internalType": "string",
          "name": "vehicle_model",
          "type": "string"
        },
        {
          "internalType": "string",
          "name": "description",
          "type": "string"
        },
        {
          "internalType": "uint256",
          "name": "buy_now_price",
          "type": "uint256"
        },
        {
          "internalType": "uint256",
          "name": "starting_price",
          "type": "uint256"
        },
        {
          "internalType": "uint256",
          "name": "min_incr",
          "type": "uint256"
        },
        {
          "internalType": "uint256",
          "name": "offer_price",
          "type": "uint256"
        }
      ],
      "payable": false,
      "stateMutability": "view",
      "type": "function"
    },
    {
      "constant": false,
      "inputs": [
        {
          "internalType": "string",
          "name": "vehicle_brand",
          "type": "string"
        },
        {
          "internalType": "string",
          "name": "vehicle_model",
          "type": "string"
        },
        {
          "internalType": "string",
          "name": "description",
          "type": "string"
        },
        {
          "internalType": "uint256",
          "name": "buy_now_price",
          "type": "uint256"
        },
        {
          "internalType": "uint256",
          "name": "starting_price",
          "type": "uint256"
        },
        {
          "internalType": "uint256",
          "name": "min_incr",
          "type": "uint256"
        },
        {
          "internalType": "uint256",
          "name": "offer_price",
          "type": "uint256"
        }
      ],
      "name": "addItem",
      "outputs": [],
      "payable": false,
      "stateMutability": "nonpayable",
      "type": "function"
    },
    {
      "constant": false,
      "inputs": [
        {
          "internalType": "uint256",
          "name": "petId",
          "type": "uint256"
        }
      ],
      "name": "adopt",
      "outputs": [
        {
          "internalType": "uint256",
          "name": "",
          "type": "uint256"
        }
      ],
      "payable": false,
      "stateMutability": "nonpayable",
      "type": "function"
    },
    {
      "constant": true,
      "inputs": [],
      "name": "getAdopters",
      "outputs": [
        {
          "internalType": "address[16]",
          "name": "",
          "type": "address[16]"
        }
      ],
      "payable": false,
      "stateMutability": "view",
      "type": "function"
    },
    {
      "constant": true,
      "inputs": [],
      "name": "getNumOfPurchase",
      "outputs": [
        {
          "internalType": "uint256",
          "name": "",
          "type": "uint256"
        }
      ],
      "payable": false,
      "stateMutability": "view",
      "type": "function"
    },
    {
      "constant": true,
      "inputs": [
        {
          "internalType": "uint256",
          "name": "_itemId",
          "type": "uint256"
        }
      ],
      "name": "getItemPrice",
      "outputs": [
        {
          "internalType": "uint256",
          "name": "",
          "type": "uint256"
        }
      ],
      "payable": false,
      "stateMutability": "view",
      "type": "function"
    },
    {
      "constant": true,
      "inputs": [],
      "name": "getAllPrices",
      "outputs": [
        {
          "internalType": "uint256[10]",
          "name": "",
          "type": "uint256[10]"
        }
      ],
      "payable": false,
      "stateMutability": "view",
      "type": "function"
    },
    {
      "constant": true,
      "inputs": [],
      "name": "getHighestOfferer",
      "outputs": [
        {
          "internalType": "address[10]",
          "name": "",
          "type": "address[10]"
        }
      ],
      "payable": false,
      "stateMutability": "view",
      "type": "function"
    },
    {
      "constant": false,
      "inputs": [
        {
          "internalType": "uint256",
          "name": "_vehicleId",
          "type": "uint256"
        },
        {
          "internalType": "uint256",
          "name": "_offerAmount",
          "type": "uint256"
        }
      ],
      "name": "placeNewOffer",
      "outputs": [
        {
          "internalType": "uint256",
          "name": "",
          "type": "uint256"
        }
      ],
      "payable": false,
      "stateMutability": "nonpayable",
      "type": "function"
    },
    {
      "constant": true,
      "inputs": [
        {
          "internalType": "uint256",
          "name": "_vehicleId",
          "type": "uint256"
        },
        {
          "internalType": "uint256",
          "name": "_offerAmount",
          "type": "uint256"
        }
      ],
      "name": "check_offer_high_enough",
      "outputs": [
        {
          "internalType": "bool",
          "name": "",
          "type": "bool"
        }
      ],
      "payable": false,
      "stateMutability": "view",
      "type": "function"
    },
    {
      "constant": true,
      "inputs": [
        {
          "internalType": "uint256",
          "name": "_vehicleId",
          "type": "uint256"
        },
        {
          "internalType": "address",
          "name": "_wallet",
          "type": "address"
        }
      ],
      "name": "check_highest_bidder",
      "outputs": [
        {
          "internalType": "bool",
          "name": "",
          "type": "bool"
        }
      ],
      "payable": false,
      "stateMutability": "view",
      "type": "function"
    }
  ],
  "bytecode": "0x608060405260006010556000601b553480156200001b57600080fd5b50620000d66040518060400160405280600381526020017f424d5700000000000000000000000000000000000000000000000000000000008152506040518060400160405280600281526020017f4d320000000000000000000000000000000000000000000000000000000000008152506040518060400160405280600e81526020017f6e65656420696e666f206865726500000000000000000000000000000000000081525060286014600260146200076e60201b60201c565b620001916040518060400160405280600881526020017f4d657263656465730000000000000000000000000000000000000000000000008152506040518060400160405280600381526020017f47545200000000000000000000000000000000000000000000000000000000008152506040518060400160405280600e81526020017f6e65656420696e666f206865726500000000000000000000000000000000000081525061019060c8601460c86200076e60201b60201c565b6200024c6040518060400160405280600581526020017f486f6e64610000000000000000000000000000000000000000000000000000008152506040518060400160405280600c81526020017f436976696320547970652d5200000000000000000000000000000000000000008152506040518060400160405280600e81526020017f6e65656420696e666f206865726500000000000000000000000000000000000081525061012c6096602360966200076e60201b60201c565b620003076040518060400160405280600a81526020017f566f6c6b73776167656e000000000000000000000000000000000000000000008152506040518060400160405280600881526020017f476f6c66206774690000000000000000000000000000000000000000000000008152506040518060400160405280600e81526020017f6e65656420696e666f206865726500000000000000000000000000000000000081525061012c6096602360966200076e60201b60201c565b620003c16040518060400160405280600381526020017f424d5700000000000000000000000000000000000000000000000000000000008152506040518060400160405280600281526020017f4d330000000000000000000000000000000000000000000000000000000000008152506040518060400160405280600e81526020017f6e65656420696e666f206865726500000000000000000000000000000000000081525060286014600260146200076e60201b60201c565b6200047c6040518060400160405280600881526020017f4d657263656465730000000000000000000000000000000000000000000000008152506040518060400160405280600381526020017f63363300000000000000000000000000000000000000000000000000000000008152506040518060400160405280600e81526020017f6e65656420696e666f206865726500000000000000000000000000000000000081525061019060c8601460c86200076e60201b60201c565b620005376040518060400160405280600581526020017f486f6e64610000000000000000000000000000000000000000000000000000008152506040518060400160405280600581526020017f73323030300000000000000000000000000000000000000000000000000000008152506040518060400160405280600e81526020017f6e65656420696e666f206865726500000000000000000000000000000000000081525061012c6096602360966200076e60201b60201c565b620005f26040518060400160405280600a81526020017f566f6c6b73776167656e000000000000000000000000000000000000000000008152506040518060400160405280600681526020017f476f6c66207200000000000000000000000000000000000000000000000000008152506040518060400160405280600e81526020017f6e65656420696e666f206865726500000000000000000000000000000000000081525061012c6096602360966200076e60201b60201c565b620006ad6040518060400160405280600481526020017f466f7264000000000000000000000000000000000000000000000000000000008152506040518060400160405280600481526020017f66313530000000000000000000000000000000000000000000000000000000008152506040518060400160405280600e81526020017f6e65656420696e666f206865726500000000000000000000000000000000000081525061012c6096602360966200076e60201b60201c565b620007686040518060400160405280600381526020017f52616d00000000000000000000000000000000000000000000000000000000008152506040518060400160405280600481526020017f31353030000000000000000000000000000000000000000000000000000000008152506040518060400160405280600e81526020017f6e65656420696e666f206865726500000000000000000000000000000000000081525061012c6096602360966200076e60201b60201c565b6200095d565b6040518060e0016040528088815260200187815260200186815260200185815260200184815260200183815260200182815250601c6000601b5481526020019081526020016000206000820151816000019080519060200190620007d4929190620008ae565b506020820151816001019080519060200190620007f3929190620008ae565b50604082015181600201908051906020019062000812929190620008ae565b50606082015181600301556080820151816004015560a0820151816005015560c082015181600601559050506000601d6000601b54815260200190815260200160002060006101000a81548173ffffffffffffffffffffffffffffffffffffffff021916908373ffffffffffffffffffffffffffffffffffffffff160217905550601b6000815480929190600101919050555050505050505050565b828054600181600116156101000203166002900490600052602060002090601f016020900481019282601f10620008f157805160ff191683800117855562000922565b8280016001018555821562000922579182015b828111156200092157825182559160200191906001019062000904565b5b50905062000931919062000935565b5090565b6200095a91905b80821115620009565760008160009055506001016200093c565b5090565b90565b6113c3806200096d6000396000f3fe608060405234801561001057600080fd5b50600436106101005760003560e01c80638587aeea11610097578063ca6158cb11610066578063ca6158cb1461076d578063d56442771461078b578063d945db0b146107d1578063f2aa82181461081357610100565b80638587aeea146104f45780638588b2c514610540578063b8ba95fa14610582578063bb32cace1461071d57610100565b80634c4df870116100d35780634c4df870146104085780635cfe6b981461044a578063810405d61461046857806382ad62b51461048657610100565b80633c7c7abb146101055780633de4eb1714610316578063445df9d61461035c57806349a027f6146103a2575b600080fd5b610314600480360360e081101561011b57600080fd5b810190808035906020019064010000000081111561013857600080fd5b82018360208201111561014a57600080fd5b8035906020019184600183028401116401000000008311171561016c57600080fd5b91908080601f016020809104026020016040519081016040528093929190818152602001838380828437600081840152601f19601f820116905080830192505050505050509192919290803590602001906401000000008111156101cf57600080fd5b8201836020820111156101e157600080fd5b8035906020019184600183028401116401000000008311171561020357600080fd5b91908080601f016020809104026020016040519081016040528093929190818152602001838380828437600081840152601f19601f8201169050808301925050505050505091929192908035906020019064010000000081111561026657600080fd5b82018360208201111561027857600080fd5b8035906020019184600183028401116401000000008311171561029a57600080fd5b91908080601f016020809104026020016040519081016040528093929190818152602001838380828437600081840152601f19601f82011690508083019250505050505050919291929080359060200190929190803590602001909291908035906020019092919080359060200190929190505050610881565b005b61031e6109bb565b6040518082601060200280838360005b8381101561034957808201518184015260208101905061032e565b5050505090500191505060405180910390f35b610364610a3c565b6040518082600a60200280838360005b8381101561038f578082015181840152602081019050610374565b5050505090500191505060405180910390f35b6103ee600480360360408110156103b857600080fd5b8101908080359060200190929190803573ffffffffffffffffffffffffffffffffffffffff169060200190929190505050610b11565b604051808215151515815260200191505060405180910390f35b6104346004803603602081101561041e57600080fd5b8101908080359060200190929190505050610b8e565b6040518082815260200191505060405180910390f35b610452610c30565b6040518082815260200191505060405180910390f35b610470610c3a565b6040518082815260200191505060405180910390f35b6104b26004803603602081101561049c57600080fd5b8101908080359060200190929190505050610c40565b604051808273ffffffffffffffffffffffffffffffffffffffff1673ffffffffffffffffffffffffffffffffffffffff16815260200191505060405180910390f35b61052a6004803603604081101561050a57600080fd5b810190808035906020019092919080359060200190929190505050610c73565b6040518082815260200191505060405180910390f35b61056c6004803603602081101561055657600080fd5b8101908080359060200190929190505050610e46565b6040518082815260200191505060405180910390f35b6105ae6004803603602081101561059857600080fd5b8101908080359060200190929190505050610ec3565b6040518080602001806020018060200188815260200187815260200186815260200185815260200184810384528b818151815260200191508051906020019080838360005b8381101561060e5780820151818401526020810190506105f3565b50505050905090810190601f16801561063b5780820380516001836020036101000a031916815260200191505b5084810383528a818151815260200191508051906020019080838360005b83811015610674578082015181840152602081019050610659565b50505050905090810190601f1680156106a15780820380516001836020036101000a031916815260200191505b50848103825289818151815260200191508051906020019080838360005b838110156106da5780820151818401526020810190506106bf565b50505050905090810190601f1680156107075780820380516001836020036101000a031916815260200191505b509a505050505050505050505060405180910390f35b6107536004803603604081101561073357600080fd5b8101908080359060200190929190803590602001909291905050506110cd565b604051808215151515815260200191505060405180910390f35b610775611101565b6040518082815260200191505060405180910390f35b610793611107565b6040518082600a60200280838360005b838110156107be5780820151818401526020810190506107a3565b5050505090500191505060405180910390f35b6107fd600480360360208110156107e757600080fd5b81019080803590602001909291905050506111b2565b6040518082815260200191505060405180910390f35b61083f6004803603602081101561082957600080fd5b81019080803590602001909291905050506111ca565b604051808273ffffffffffffffffffffffffffffffffffffffff1673ffffffffffffffffffffffffffffffffffffffff16815260200191505060405180910390f35b6040518060e0016040528088815260200187815260200186815260200185815260200184815260200183815260200182815250601c6000601b54815260200190815260200160002060008201518160000190805190602001906108e59291906111fd565b5060208201518160010190805190602001906109029291906111fd565b50604082015181600201908051906020019061091f9291906111fd565b50606082015181600301556080820151816004015560a0820151816005015560c082015181600601559050506000601d6000601b54815260200190815260200160002060006101000a81548173ffffffffffffffffffffffffffffffffffffffff021916908373ffffffffffffffffffffffffffffffffffffffff160217905550601b6000815480929190600101919050555050505050505050565b6109c361127d565b6000601080602002604051908101604052809291908260108015610a32576020028201915b8160009054906101000a900473ffffffffffffffffffffffffffffffffffffffff1673ffffffffffffffffffffffffffffffffffffffff16815260200190600101908083116109e8575b5050505050905090565b610a446112a0565b610a4c6112a0565b60008090505b600a811015610b09573073ffffffffffffffffffffffffffffffffffffffff16634c4df870826040518263ffffffff1660e01b81526004018082815260200191505060206040518083038186803b158015610aac57600080fd5b505afa158015610ac0573d6000803e3d6000fd5b505050506040513d6020811015610ad657600080fd5b81019080805190602001909291905050508282600a8110610af357fe5b6020020181815250508080600101915050610a52565b508091505090565b6000601d600084815260200190815260200160002060009054906101000a900473ffffffffffffffffffffffffffffffffffffffff1673ffffffffffffffffffffffffffffffffffffffff168273ffffffffffffffffffffffffffffffffffffffff161415610b835760009050610b88565b600190505b92915050565b6000808210158015610ba05750600a82105b610c12576040517f08c379a00000000000000000000000000000000000000000000000000000000081526004018080602001828103825260138152602001807f4974656d20646f6573206e6f742065786973740000000000000000000000000081525060200191505060405180910390fd5b601c6000838152602001908152602001600020600601549050919050565b6000601054905090565b60105481565b601d6020528060005260406000206000915054906101000a900473ffffffffffffffffffffffffffffffffffffffff1681565b6000808310158015610c855750600a83105b610cda576040517f08c379a000000000000000000000000000000000000000000000000000000000815260040180806020018281038252602b815260200180611340602b913960400191505060405180910390fd5b610ce483836110cd565b610d39576040517f08c379a000000000000000000000000000000000000000000000000000000000815260040180806020018281038252603481526020018061130c6034913960400191505060405180910390fd5b610d438333610b11565b610d98576040517f08c379a000000000000000000000000000000000000000000000000000000000815260040180806020018281038252602481526020018061136b6024913960400191505060405180910390fd5b81601c60008581526020019081526020016000206006018190555033601d600085815260200190815260200160002060006101000a81548173ffffffffffffffffffffffffffffffffffffffff021916908373ffffffffffffffffffffffffffffffffffffffff160217905550817fecb9e3a3b7f920c2fc79e3421abdd882b99264261f4c0dfb181a22ab31dc855b846040518082815260200191505060405180910390a282905092915050565b6000808210158015610e595750600f8211155b610e6257600080fd5b3360008360108110610e7057fe5b0160006101000a81548173ffffffffffffffffffffffffffffffffffffffff021916908373ffffffffffffffffffffffffffffffffffffffff160217905550600160105401601081905550819050919050565b601c602052806000526040600020600091509050806000018054600181600116156101000203166002900480601f016020809104026020016040519081016040528092919081815260200182805460018160011615610100020316600290048015610f6f5780601f10610f4457610100808354040283529160200191610f6f565b820191906000526020600020905b815481529060010190602001808311610f5257829003601f168201915b505050505090806001018054600181600116156101000203166002900480601f01602080910402602001604051908101604052809291908181526020018280546001816001161561010002031660029004801561100d5780601f10610fe25761010080835404028352916020019161100d565b820191906000526020600020905b815481529060010190602001808311610ff057829003601f168201915b505050505090806002018054600181600116156101000203166002900480601f0160208091040260200160405190810160405280929190818152602001828054600181600116156101000203166002900480156110ab5780601f10611080576101008083540402835291602001916110ab565b820191906000526020600020905b81548152906001019060200180831161108e57829003601f168201915b5050505050908060030154908060040154908060050154908060060154905087565b6000601c6000848152602001908152602001600020600601548211156110f657600190506110fb565b600090505b92915050565b601b5481565b61110f6112c3565b6111176112c3565b60008090505b600a8110156111aa57601d600082815260200190815260200160002060009054906101000a900473ffffffffffffffffffffffffffffffffffffffff168282600a811061116657fe5b602002019073ffffffffffffffffffffffffffffffffffffffff16908173ffffffffffffffffffffffffffffffffffffffff1681525050808060010191505061111d565b508091505090565b601181600a81106111bf57fe5b016000915090505481565b600081601081106111d757fe5b016000915054906101000a900473ffffffffffffffffffffffffffffffffffffffff1681565b828054600181600116156101000203166002900490600052602060002090601f016020900481019282601f1061123e57805160ff191683800117855561126c565b8280016001018555821561126c579182015b8281111561126b578251825591602001919060010190611250565b5b50905061127991906112e6565b5090565b604051806102000160405280601090602082028038833980820191505090505090565b604051806101400160405280600a90602082028038833980820191505090505090565b604051806101400160405280600a90602082028038833980820191505090505090565b61130891905b808211156113045760008160009055506001016112ec565b5090565b9056fe4e6577204f66666572206973206c6f776572206f7220657175616c20746f207468652068696768657374206269642076616c75654974656d20747279696e6720746f20706c6179206e6577206f66666572206f6e20697320696e76616c6964506572736f6e2062696464696e6720697320746865206869676865737420626964646572a265627a7a72315820df631951361d9a0edba22f9005bb6ee8519b37c5d4704be6d582c648626392c064736f6c63430005100032",
  "source": "pragma solidity ^0.5.0;\n\ncontract Adoption {\n    struct Item{\t\t\t\n        string vehicle_brand; // vehicle's brand\n\t\tstring vehicle_model; // which specific model is this vehicle\n        string description; // information about a vehicle, e.g. production year, mileage\n        uint buy_now_price;\n\t\tuint starting_price; // starting price\n\t\tuint min_incr; // minimum increment for a bid\n\t\tuint offer_price;  // current price of item\n\t}\n\n    address[16] public buyers; // array of ethereum addresses\n    uint constant carCount = 10;\n    uint public numOfPurchases = 0;\n    uint[carCount] public arrayForItems;\n\tuint public itemId = 0;\n    mapping(uint => Item) public vehicles; // item hash table\n    mapping(uint => address) public highestOfferers; // highest bidders hash table \n    event offerPlacement(uint _vehicleId, uint indexed _offerAmount); // Declaring events which help us use ethereum's logging facility\n\n    function addItem (string memory vehicle_brand, string memory vehicle_model, string memory description, uint buy_now_price, uint starting_price, uint min_incr, uint offer_price) public { \t\n\t\tvehicles[itemId] = Item(vehicle_brand, vehicle_model, description, buy_now_price, starting_price, min_incr, offer_price);\n\t\thighestOfferers[itemId] = address(0);\n\t\titemId ++;\n\t}\n    \n    constructor() public {\t\n\t\taddItem(\"BMW\", \"M2\", \"need info here\", 40, 20, 2, 20);\n\t\taddItem(\"Mercedes\", \"GTR\", \"need info here\", 400, 200, 20, 200);\n\t\taddItem(\"Honda\", \"Civic Type-R\", \"need info here\", 300, 150, 35, 150);\n\t\taddItem(\"Volkswagen\", \"Golf gti\", \"need info here\", 300, 150, 35, 150);\n        addItem(\"BMW\", \"M3\", \"need info here\", 40, 20, 2, 20);\n\t\taddItem(\"Mercedes\", \"c63\", \"need info here\", 400, 200, 20, 200);\n\t\taddItem(\"Honda\", \"s2000\", \"need info here\", 300, 150, 35, 150);\n\t\taddItem(\"Volkswagen\", \"Golf r\", \"need info here\", 300, 150, 35, 150);\n        addItem(\"Ford\", \"f150\", \"need info here\", 300, 150, 35, 150);\n        addItem(\"Ram\", \"1500\", \"need info here\", 300, 150, 35, 150);\n\t}\n    \n    // Adopting a pet\n    function adopt(uint petId) public returns (uint) {\n        require(petId >= 0 && petId <= 15);\n        buyers[petId] = msg.sender;\n        numOfPurchases = numOfPurchases +1;\n        return petId;\n        }\n    // Retrieving the adopters\n    function getAdopters() public view returns (address[16] memory) {\n        return buyers;\n    }\n\n    function getNumOfPurchase() public view returns (uint){\n        return numOfPurchases;\n    }\n\n    function getItemPrice (uint _itemId) public view returns (uint) {\n\t\trequire(_itemId >= 0 && _itemId < carCount, \"Item does not exist\"); // the item id must be greater than 0 but less or equal to the total count\n\t\treturn vehicles[_itemId].offer_price;\n\t}\n\n    function getAllPrices() public view returns (uint[carCount] memory) {\n        uint[carCount] memory result;\n        for (uint i=0;i < carCount; i++) {\n            result[i] = this.getItemPrice(i);\n        }\n\t\treturn result;\n\t}\n\n    function getHighestOfferer() public view returns (address[carCount] memory) {\n\t\taddress[carCount] memory arrayOfBidders;\n\t\tfor (uint i=0;i < carCount; i++) {\n\t\t\tarrayOfBidders[i] = highestOfferers[i];\n\t\t}\n\t\treturn arrayOfBidders;\n\n\t}\n\n\n    function placeNewOffer (uint _vehicleId, uint _offerAmount) public returns (uint) {\n        // Requirements \n\t\trequire(_vehicleId >= 0 && _vehicleId < carCount, \"Item trying to play new offer on is invalid\"); \t\n\t\trequire(check_offer_high_enough (_vehicleId, _offerAmount),\"New Offer is lower or equal to the highest bid value\");\n\t\trequire(check_highest_bidder(_vehicleId, msg.sender), \"Person bidding is the highest bidder\");\n\n        vehicles[_vehicleId].offer_price = _offerAmount; \n\t\thighestOfferers[_vehicleId] = msg.sender;\n\n\t\temit offerPlacement(_vehicleId, _offerAmount); \n\n        return _vehicleId; // return the item back \t\n\n    }\n\n\tfunction check_offer_high_enough (uint _vehicleId, uint _offerAmount) public view returns (bool) {\n\t\tif (_offerAmount > vehicles[_vehicleId].offer_price) return true;\n\t\telse return false;\n\t}\n\t\n\tfunction check_highest_bidder (uint _vehicleId, address _wallet) public view returns (bool) {\n\t\tif (_wallet == highestOfferers[_vehicleId]) {\n\t\t\treturn false;\n\t\t} else {\n\t\t\treturn true;\n\t\t}\n\t}\n\n}\n",
  "sourcePath": "/Users/zijianchen/Autoshop_Project/contracts/Adoption.sol",
  "compiler": {
    "name": "solc",
    "version": "0.5.16+commit.9c3226ce.Emscripten.clang"
  },
  "schemaVersion": "3.4.4",
  "updatedAt": "2022-04-27T23:13:32.466Z",
  "networkType": "ethereum",
  "devdoc": {
    "methods": {}
  },
  "userdoc": {
    "methods": {}
  }
}