{
  "contractName": "Adoption",
  "abi": [
    {
      "inputs": [],
      "payable": false,
      "stateMutability": "nonpayable",
      "type": "constructor"
    },
    {
      "anonymous": false,
      "inputs": [
        {
          "indexed": false,
          "internalType": "uint256",
          "name": "_itemId",
          "type": "uint256"
        },
        {
          "indexed": true,
          "internalType": "uint256",
          "name": "_bidAmt",
          "type": "uint256"
        }
      ],
      "name": "BidEvent",
      "type": "event"
    },
    {
      "constant": true,
      "inputs": [
        {
          "internalType": "uint256",
          "name": "",
          "type": "uint256"
        }
      ],
      "name": "arrayForItems",
      "outputs": [
        {
          "internalType": "uint256",
          "name": "",
          "type": "uint256"
        }
      ],
      "payable": false,
      "stateMutability": "view",
      "type": "function"
    },
    {
      "constant": true,
      "inputs": [
        {
          "internalType": "uint256",
          "name": "",
          "type": "uint256"
        }
      ],
      "name": "buyers",
      "outputs": [
        {
          "internalType": "address",
          "name": "",
          "type": "address"
        }
      ],
      "payable": false,
      "stateMutability": "view",
      "type": "function"
    },
    {
      "constant": true,
      "inputs": [
        {
          "internalType": "uint256",
          "name": "",
          "type": "uint256"
        }
      ],
      "name": "highestBidders",
      "outputs": [
        {
          "internalType": "address",
          "name": "",
          "type": "address"
        }
      ],
      "payable": false,
      "stateMutability": "view",
      "type": "function"
    },
    {
      "constant": true,
      "inputs": [],
      "name": "itemId",
      "outputs": [
        {
          "internalType": "uint256",
          "name": "",
          "type": "uint256"
        }
      ],
      "payable": false,
      "stateMutability": "view",
      "type": "function"
    },
    {
      "constant": true,
      "inputs": [],
      "name": "numOfPurchases",
      "outputs": [
        {
          "internalType": "uint256",
          "name": "",
          "type": "uint256"
        }
      ],
      "payable": false,
      "stateMutability": "view",
      "type": "function"
    },
    {
      "constant": true,
      "inputs": [
        {
          "internalType": "uint256",
          "name": "",
          "type": "uint256"
        }
      ],
      "name": "vehicles",
      "outputs": [
        {
          "internalType": "string",
          "name": "vehicle_brand",
          "type": "string"
        },
        {
          "internalType": "string",
          "name": "vehicle_model",
          "type": "string"
        },
        {
          "internalType": "string",
          "name": "description",
          "type": "string"
        },
        {
          "internalType": "uint256",
          "name": "buy_now_price",
          "type": "uint256"
        },
        {
          "internalType": "uint256",
          "name": "starting_price",
          "type": "uint256"
        },
        {
          "internalType": "uint256",
          "name": "min_incr",
          "type": "uint256"
        },
        {
          "internalType": "uint256",
          "name": "offer_price",
          "type": "uint256"
        }
      ],
      "payable": false,
      "stateMutability": "view",
      "type": "function"
    },
    {
      "constant": false,
      "inputs": [
        {
          "internalType": "string",
          "name": "vehicle_brand",
          "type": "string"
        },
        {
          "internalType": "string",
          "name": "vehicle_model",
          "type": "string"
        },
        {
          "internalType": "string",
          "name": "description",
          "type": "string"
        },
        {
          "internalType": "uint256",
          "name": "buy_now_price",
          "type": "uint256"
        },
        {
          "internalType": "uint256",
          "name": "starting_price",
          "type": "uint256"
        },
        {
          "internalType": "uint256",
          "name": "min_incr",
          "type": "uint256"
        },
        {
          "internalType": "uint256",
          "name": "offer_price",
          "type": "uint256"
        }
      ],
      "name": "addItem",
      "outputs": [],
      "payable": false,
      "stateMutability": "nonpayable",
      "type": "function"
    },
    {
      "constant": false,
      "inputs": [
        {
          "internalType": "uint256",
          "name": "petId",
          "type": "uint256"
        }
      ],
      "name": "adopt",
      "outputs": [
        {
          "internalType": "uint256",
          "name": "",
          "type": "uint256"
        }
      ],
      "payable": false,
      "stateMutability": "nonpayable",
      "type": "function"
    },
    {
      "constant": true,
      "inputs": [],
      "name": "getAdopters",
      "outputs": [
        {
          "internalType": "address[16]",
          "name": "",
          "type": "address[16]"
        }
      ],
      "payable": false,
      "stateMutability": "view",
      "type": "function"
    },
    {
      "constant": true,
      "inputs": [],
      "name": "getNumOfPurchase",
      "outputs": [
        {
          "internalType": "uint256",
          "name": "",
          "type": "uint256"
        }
      ],
      "payable": false,
      "stateMutability": "view",
      "type": "function"
    },
    {
      "constant": true,
      "inputs": [
        {
          "internalType": "uint256",
          "name": "_itemId",
          "type": "uint256"
        }
      ],
      "name": "getItemPrice",
      "outputs": [
        {
          "internalType": "uint256",
          "name": "",
          "type": "uint256"
        }
      ],
      "payable": false,
      "stateMutability": "view",
      "type": "function"
    },
    {
      "constant": true,
      "inputs": [],
      "name": "getAllPrices",
      "outputs": [
        {
          "internalType": "uint256[10]",
          "name": "",
          "type": "uint256[10]"
        }
      ],
      "payable": false,
      "stateMutability": "view",
      "type": "function"
    },
    {
      "constant": true,
      "inputs": [],
      "name": "getHighestOfferer",
      "outputs": [
        {
          "internalType": "address[10]",
          "name": "",
          "type": "address[10]"
        }
      ],
      "payable": false,
      "stateMutability": "view",
      "type": "function"
    },
    {
      "constant": false,
      "inputs": [
        {
          "internalType": "uint256",
          "name": "_itemId",
          "type": "uint256"
        },
        {
          "internalType": "uint256",
          "name": "_bidAmt",
          "type": "uint256"
        }
      ],
      "name": "placeBid",
      "outputs": [
        {
          "internalType": "uint256",
          "name": "",
          "type": "uint256"
        }
      ],
      "payable": false,
      "stateMutability": "nonpayable",
      "type": "function"
    },
    {
      "constant": true,
      "inputs": [
        {
          "internalType": "uint256",
          "name": "_itemId",
          "type": "uint256"
        },
        {
          "internalType": "uint256",
          "name": "_bidAmt",
          "type": "uint256"
        }
      ],
      "name": "check_bid",
      "outputs": [
        {
          "internalType": "bool",
          "name": "",
          "type": "bool"
        }
      ],
      "payable": false,
      "stateMutability": "view",
      "type": "function"
    },
    {
      "constant": true,
      "inputs": [
        {
          "internalType": "uint256",
          "name": "_itemId",
          "type": "uint256"
        },
        {
          "internalType": "uint256",
          "name": "_bidAmt",
          "type": "uint256"
        }
      ],
      "name": "check_increment",
      "outputs": [
        {
          "internalType": "bool",
          "name": "",
          "type": "bool"
        }
      ],
      "payable": false,
      "stateMutability": "view",
      "type": "function"
    },
    {
      "constant": true,
      "inputs": [
        {
          "internalType": "uint256",
          "name": "_itemId",
          "type": "uint256"
        },
        {
          "internalType": "address",
          "name": "person_wallet",
          "type": "address"
        }
      ],
      "name": "check_highest_bidder",
      "outputs": [
        {
          "internalType": "bool",
          "name": "",
          "type": "bool"
        }
      ],
      "payable": false,
      "stateMutability": "view",
      "type": "function"
    }
  ],
  "bytecode": "0x608060405260006010556000601b553480156200001b57600080fd5b50620000d66040518060400160405280600381526020017f424d5700000000000000000000000000000000000000000000000000000000008152506040518060400160405280600281526020017f4d320000000000000000000000000000000000000000000000000000000000008152506040518060400160405280600e81526020017f6e65656420696e666f206865726500000000000000000000000000000000000081525060286014600260146200076e60201b60201c565b620001916040518060400160405280600881526020017f4d657263656465730000000000000000000000000000000000000000000000008152506040518060400160405280600381526020017f47545200000000000000000000000000000000000000000000000000000000008152506040518060400160405280600e81526020017f6e65656420696e666f206865726500000000000000000000000000000000000081525061019060c8601460c86200076e60201b60201c565b6200024c6040518060400160405280600581526020017f486f6e64610000000000000000000000000000000000000000000000000000008152506040518060400160405280600c81526020017f436976696320547970652d5200000000000000000000000000000000000000008152506040518060400160405280600e81526020017f6e65656420696e666f206865726500000000000000000000000000000000000081525061012c6096602360966200076e60201b60201c565b620003076040518060400160405280600a81526020017f566f6c6b73776167656e000000000000000000000000000000000000000000008152506040518060400160405280600881526020017f476f6c66206774690000000000000000000000000000000000000000000000008152506040518060400160405280600e81526020017f6e65656420696e666f206865726500000000000000000000000000000000000081525061012c6096602360966200076e60201b60201c565b620003c16040518060400160405280600381526020017f424d5700000000000000000000000000000000000000000000000000000000008152506040518060400160405280600281526020017f4d330000000000000000000000000000000000000000000000000000000000008152506040518060400160405280600e81526020017f6e65656420696e666f206865726500000000000000000000000000000000000081525060286014600260146200076e60201b60201c565b6200047c6040518060400160405280600881526020017f4d657263656465730000000000000000000000000000000000000000000000008152506040518060400160405280600381526020017f63363300000000000000000000000000000000000000000000000000000000008152506040518060400160405280600e81526020017f6e65656420696e666f206865726500000000000000000000000000000000000081525061019060c8601460c86200076e60201b60201c565b620005376040518060400160405280600581526020017f486f6e64610000000000000000000000000000000000000000000000000000008152506040518060400160405280600581526020017f73323030300000000000000000000000000000000000000000000000000000008152506040518060400160405280600e81526020017f6e65656420696e666f206865726500000000000000000000000000000000000081525061012c6096602360966200076e60201b60201c565b620005f26040518060400160405280600a81526020017f566f6c6b73776167656e000000000000000000000000000000000000000000008152506040518060400160405280600681526020017f476f6c66207200000000000000000000000000000000000000000000000000008152506040518060400160405280600e81526020017f6e65656420696e666f206865726500000000000000000000000000000000000081525061012c6096602360966200076e60201b60201c565b620006ad6040518060400160405280600481526020017f466f7264000000000000000000000000000000000000000000000000000000008152506040518060400160405280600481526020017f66313530000000000000000000000000000000000000000000000000000000008152506040518060400160405280600e81526020017f6e65656420696e666f206865726500000000000000000000000000000000000081525061012c6096602360966200076e60201b60201c565b620007686040518060400160405280600381526020017f52616d00000000000000000000000000000000000000000000000000000000008152506040518060400160405280600481526020017f31353030000000000000000000000000000000000000000000000000000000008152506040518060400160405280600e81526020017f6e65656420696e666f206865726500000000000000000000000000000000000081525061012c6096602360966200076e60201b60201c565b6200095d565b6040518060e0016040528088815260200187815260200186815260200185815260200184815260200183815260200182815250601c6000601b5481526020019081526020016000206000820151816000019080519060200190620007d4929190620008ae565b506020820151816001019080519060200190620007f3929190620008ae565b50604082015181600201908051906020019062000812929190620008ae565b50606082015181600301556080820151816004015560a0820151816005015560c082015181600601559050506000601d6000601b54815260200190815260200160002060006101000a81548173ffffffffffffffffffffffffffffffffffffffff021916908373ffffffffffffffffffffffffffffffffffffffff160217905550601b6000815480929190600101919050555050505050505050565b828054600181600116156101000203166002900490600052602060002090601f016020900481019282601f10620008f157805160ff191683800117855562000922565b8280016001018555821562000922579182015b828111156200092157825182559160200191906001019062000904565b5b50905062000931919062000935565b5090565b6200095a91905b80821115620009565760008160009055506001016200093c565b5090565b90565b6114e6806200096d6000396000f3fe608060405234801561001057600080fd5b506004361061010b5760003560e01c806377484aae116100a2578063b8ba95fa11610071578063b8ba95fa1461062d578063ca6158cb146107c8578063d5644277146107e6578063d945db0b1461082c578063f2aa82181461086e5761010b565b806377484aae1461050f578063810405d61461057d5780638588b2c51461059b578063a14acf00146105dd5761010b565b806349a027f6116100de57806349a027f6146103fd5780634c4df8701461046357806357c90de5146104a55780635cfe6b98146104f15761010b565b80631c6076bb146101105780633c7c7abb146101605780633de4eb1714610371578063445df9d6146103b7575b600080fd5b6101466004803603604081101561012657600080fd5b8101908080359060200190929190803590602001909291905050506108dc565b604051808215151515815260200191505060405180910390f35b61036f600480360360e081101561017657600080fd5b810190808035906020019064010000000081111561019357600080fd5b8201836020820111156101a557600080fd5b803590602001918460018302840111640100000000831117156101c757600080fd5b91908080601f016020809104026020016040519081016040528093929190818152602001838380828437600081840152601f19601f8201169050808301925050505050505091929192908035906020019064010000000081111561022a57600080fd5b82018360208201111561023c57600080fd5b8035906020019184600183028401116401000000008311171561025e57600080fd5b91908080601f016020809104026020016040519081016040528093929190818152602001838380828437600081840152601f19601f820116905080830192505050505050509192919290803590602001906401000000008111156102c157600080fd5b8201836020820111156102d357600080fd5b803590602001918460018302840111640100000000831117156102f557600080fd5b91908080601f016020809104026020016040519081016040528093929190818152602001838380828437600081840152601f19601f82011690508083019250505050505050919291929080359060200190929190803590602001909291908035906020019092919080359060200190929190505050610910565b005b610379610a4a565b6040518082601060200280838360005b838110156103a4578082015181840152602081019050610389565b5050505090500191505060405180910390f35b6103bf610acb565b6040518082600a60200280838360005b838110156103ea5780820151818401526020810190506103cf565b5050505090500191505060405180910390f35b6104496004803603604081101561041357600080fd5b8101908080359060200190929190803573ffffffffffffffffffffffffffffffffffffffff169060200190929190505050610ba0565b604051808215151515815260200191505060405180910390f35b61048f6004803603602081101561047957600080fd5b8101908080359060200190929190505050610c1d565b6040518082815260200191505060405180910390f35b6104db600480360360408110156104bb57600080fd5b810190808035906020019092919080359060200190929190505050610cbf565b6040518082815260200191505060405180910390f35b6104f9610f0e565b6040518082815260200191505060405180910390f35b61053b6004803603602081101561052557600080fd5b8101908080359060200190929190505050610f18565b604051808273ffffffffffffffffffffffffffffffffffffffff1673ffffffffffffffffffffffffffffffffffffffff16815260200191505060405180910390f35b610585610f4b565b6040518082815260200191505060405180910390f35b6105c7600480360360208110156105b157600080fd5b8101908080359060200190929190505050610f51565b6040518082815260200191505060405180910390f35b610613600480360360408110156105f357600080fd5b810190808035906020019092919080359060200190929190505050610fce565b604051808215151515815260200191505060405180910390f35b6106596004803603602081101561064357600080fd5b810190808035906020019092919050505061101f565b6040518080602001806020018060200188815260200187815260200186815260200185815260200184810384528b818151815260200191508051906020019080838360005b838110156106b957808201518184015260208101905061069e565b50505050905090810190601f1680156106e65780820380516001836020036101000a031916815260200191505b5084810383528a818151815260200191508051906020019080838360005b8381101561071f578082015181840152602081019050610704565b50505050905090810190601f16801561074c5780820380516001836020036101000a031916815260200191505b50848103825289818151815260200191508051906020019080838360005b8381101561078557808201518184015260208101905061076a565b50505050905090810190601f1680156107b25780820380516001836020036101000a031916815260200191505b509a505050505050505050505060405180910390f35b6107d0611229565b6040518082815260200191505060405180910390f35b6107ee61122f565b6040518082600a60200280838360005b838110156108195780820151818401526020810190506107fe565b5050505090500191505060405180910390f35b6108586004803603602081101561084257600080fd5b81019080803590602001909291905050506112da565b6040518082815260200191505060405180910390f35b61089a6004803603602081101561088457600080fd5b81019080803590602001909291905050506112f2565b604051808273ffffffffffffffffffffffffffffffffffffffff1673ffffffffffffffffffffffffffffffffffffffff16815260200191505060405180910390f35b6000601c600084815260200190815260200160002060060154821115610905576001905061090a565b600090505b92915050565b6040518060e0016040528088815260200187815260200186815260200185815260200184815260200183815260200182815250601c6000601b5481526020019081526020016000206000820151816000019080519060200190610974929190611325565b506020820151816001019080519060200190610991929190611325565b5060408201518160020190805190602001906109ae929190611325565b50606082015181600301556080820151816004015560a0820151816005015560c082015181600601559050506000601d6000601b54815260200190815260200160002060006101000a81548173ffffffffffffffffffffffffffffffffffffffff021916908373ffffffffffffffffffffffffffffffffffffffff160217905550601b6000815480929190600101919050555050505050505050565b610a526113a5565b6000601080602002604051908101604052809291908260108015610ac1576020028201915b8160009054906101000a900473ffffffffffffffffffffffffffffffffffffffff1673ffffffffffffffffffffffffffffffffffffffff1681526020019060010190808311610a77575b5050505050905090565b610ad36113c8565b610adb6113c8565b60008090505b600a811015610b98573073ffffffffffffffffffffffffffffffffffffffff16634c4df870826040518263ffffffff1660e01b81526004018082815260200191505060206040518083038186803b158015610b3b57600080fd5b505afa158015610b4f573d6000803e3d6000fd5b505050506040513d6020811015610b6557600080fd5b81019080805190602001909291905050508282600a8110610b8257fe5b6020020181815250508080600101915050610ae1565b508091505090565b6000601d600084815260200190815260200160002060009054906101000a900473ffffffffffffffffffffffffffffffffffffffff1673ffffffffffffffffffffffffffffffffffffffff168273ffffffffffffffffffffffffffffffffffffffff161415610c125760009050610c17565b600190505b92915050565b6000808210158015610c2f5750600a82105b610ca1576040517f08c379a00000000000000000000000000000000000000000000000000000000081526004018080602001828103825260138152602001807f4974656d20646f6573206e6f742065786973740000000000000000000000000081525060200191505060405180910390fd5b601c6000838152602001908152602001600020600601549050919050565b6000808310158015610cd15750600a83105b610d43576040517f08c379a000000000000000000000000000000000000000000000000000000000815260040180806020018281038252601a8152602001807f42696464696e67206f6e20616e20696e76616c6964206974656d00000000000081525060200191505060405180910390fd5b610d4d83836108dc565b610da2576040517f08c379a000000000000000000000000000000000000000000000000000000000815260040180806020018281038252602e815260200180611484602e913960400191505060405180910390fd5b610dac8383610fce565b610e01576040517f08c379a000000000000000000000000000000000000000000000000000000000815260040180806020018281038252602c815260200180611434602c913960400191505060405180910390fd5b610e0b8333610ba0565b610e60576040517f08c379a00000000000000000000000000000000000000000000000000000000081526004018080602001828103825260248152602001806114606024913960400191505060405180910390fd5b81601c60008581526020019081526020016000206006018190555033601d600085815260200190815260200160002060006101000a81548173ffffffffffffffffffffffffffffffffffffffff021916908373ffffffffffffffffffffffffffffffffffffffff160217905550817f7b0140573d213f42228ee5bf51487a8b9a9e85e0f8d61506811f7af74afcddc8846040518082815260200191505060405180910390a282905092915050565b6000601054905090565b601d6020528060005260406000206000915054906101000a900473ffffffffffffffffffffffffffffffffffffffff1681565b60105481565b6000808210158015610f645750600f8211155b610f6d57600080fd5b3360008360108110610f7b57fe5b0160006101000a81548173ffffffffffffffffffffffffffffffffffffffff021916908373ffffffffffffffffffffffffffffffffffffffff160217905550600160105401601081905550819050919050565b600080601c60008581526020019081526020016000206006015483039050601c6000858152602001908152602001600020600501548110611013576001915050611019565b60009150505b92915050565b601c602052806000526040600020600091509050806000018054600181600116156101000203166002900480601f0160208091040260200160405190810160405280929190818152602001828054600181600116156101000203166002900480156110cb5780601f106110a0576101008083540402835291602001916110cb565b820191906000526020600020905b8154815290600101906020018083116110ae57829003601f168201915b505050505090806001018054600181600116156101000203166002900480601f0160208091040260200160405190810160405280929190818152602001828054600181600116156101000203166002900480156111695780601f1061113e57610100808354040283529160200191611169565b820191906000526020600020905b81548152906001019060200180831161114c57829003601f168201915b505050505090806002018054600181600116156101000203166002900480601f0160208091040260200160405190810160405280929190818152602001828054600181600116156101000203166002900480156112075780601f106111dc57610100808354040283529160200191611207565b820191906000526020600020905b8154815290600101906020018083116111ea57829003601f168201915b5050505050908060030154908060040154908060050154908060060154905087565b601b5481565b6112376113eb565b61123f6113eb565b60008090505b600a8110156112d257601d600082815260200190815260200160002060009054906101000a900473ffffffffffffffffffffffffffffffffffffffff168282600a811061128e57fe5b602002019073ffffffffffffffffffffffffffffffffffffffff16908173ffffffffffffffffffffffffffffffffffffffff16815250508080600101915050611245565b508091505090565b601181600a81106112e757fe5b016000915090505481565b600081601081106112ff57fe5b016000915054906101000a900473ffffffffffffffffffffffffffffffffffffffff1681565b828054600181600116156101000203166002900490600052602060002090601f016020900481019282601f1061136657805160ff1916838001178555611394565b82800160010185558215611394579182015b82811115611393578251825591602001919060010190611378565b5b5090506113a1919061140e565b5090565b604051806102000160405280601090602082028038833980820191505090505090565b604051806101400160405280600a90602082028038833980820191505090505090565b604051806101400160405280600a90602082028038833980820191505090505090565b61143091905b8082111561142c576000816000905550600101611414565b5090565b9056fe426964206973206e6f7420656e6f756768206261736564206f6e206d696e696d756d20696e6372656d656e74506572736f6e2062696464696e6720697320746865206869676865737420626964646572426964206973206c6f776572206f7220657175616c20746f207468652068696768657374206269642076616c7565a265627a7a7231582085fe9dcc8c5b7a431fd0b44e9983981fce99fe1216e29932a42b4f91d44688ad64736f6c63430005100032",
  "source": "pragma solidity ^0.5.0;\n\ncontract Adoption {\n    struct Item{\t\t\t\n        string vehicle_brand; // vehicle's brand\n\t\tstring vehicle_model; // which specific model is this vehicle\n        string description; // information about a vehicle, e.g. production year, mileage\n        uint buy_now_price;\n\t\tuint starting_price; // starting price\n\t\tuint min_incr; // minimum increment for a bid\n\t\tuint offer_price;  // current price of item\n\t}\n\n    address[16] public buyers; // array of ethereum addresses\n    uint constant carCount = 10;\n    uint public numOfPurchases = 0;\n    uint[carCount] public arrayForItems;\n\tuint public itemId = 0;\n    mapping(uint => Item) public vehicles; // item hash table\n    mapping(uint => address) public highestBidders; // highest bidders hash table \n    event BidEvent(uint _itemId, uint indexed _bidAmt); // Declaring events which help us use ethereum's logging facility\n\n    function addItem (string memory vehicle_brand, string memory vehicle_model, string memory description, uint buy_now_price, uint starting_price, uint min_incr, uint offer_price) public { \t\n\t\tvehicles[itemId] = Item(vehicle_brand, vehicle_model, description, buy_now_price, starting_price, min_incr, offer_price);\n\t\thighestBidders[itemId] = address(0);\n\t\titemId ++;\n\t}\n    \n    constructor() public {\t\n\t\taddItem(\"BMW\", \"M2\", \"need info here\", 40, 20, 2, 20);\n\t\taddItem(\"Mercedes\", \"GTR\", \"need info here\", 400, 200, 20, 200);\n\t\taddItem(\"Honda\", \"Civic Type-R\", \"need info here\", 300, 150, 35, 150);\n\t\taddItem(\"Volkswagen\", \"Golf gti\", \"need info here\", 300, 150, 35, 150);\n        addItem(\"BMW\", \"M3\", \"need info here\", 40, 20, 2, 20);\n\t\taddItem(\"Mercedes\", \"c63\", \"need info here\", 400, 200, 20, 200);\n\t\taddItem(\"Honda\", \"s2000\", \"need info here\", 300, 150, 35, 150);\n\t\taddItem(\"Volkswagen\", \"Golf r\", \"need info here\", 300, 150, 35, 150);\n        addItem(\"Ford\", \"f150\", \"need info here\", 300, 150, 35, 150);\n        addItem(\"Ram\", \"1500\", \"need info here\", 300, 150, 35, 150);\n\t}\n    \n    // Adopting a pet\n    function adopt(uint petId) public returns (uint) {\n        require(petId >= 0 && petId <= 15);\n        buyers[petId] = msg.sender;\n        numOfPurchases = numOfPurchases +1;\n        return petId;\n        }\n    // Retrieving the adopters\n    function getAdopters() public view returns (address[16] memory) {\n        return buyers;\n    }\n\n    function getNumOfPurchase() public view returns (uint){\n        return numOfPurchases;\n    }\n\n    function getItemPrice (uint _itemId) public view returns (uint) {\n\t\trequire(_itemId >= 0 && _itemId < carCount, \"Item does not exist\"); // the item id must be greater than 0 but less or equal to the total count\n\t\treturn vehicles[_itemId].offer_price;\n\t}\n\n    function getAllPrices() public view returns (uint[carCount] memory) {\n        uint[carCount] memory result;\n        for (uint i=0;i < carCount; i++) {\n            result[i] = this.getItemPrice(i);\n        }\n\t\treturn result;\n\t}\n\n    function getHighestOfferer() public view returns (address[carCount] memory) {\n\t\taddress[carCount] memory arrayOfBidders;\n\t\tfor (uint i=0;i < carCount; i++) {\n\t\t\tarrayOfBidders[i] = highestBidders[i];\n\t\t}\n\t\treturn arrayOfBidders;\n\n\t}\n\n\n    function placeBid (uint _itemId, uint _bidAmt) public returns (uint) {\n        // Requirements \n\t\trequire(_itemId >= 0 && _itemId < carCount, \"Bidding on an invalid item\"); // the item id must be greater than 0 but less than the total count\n\t\t\n\t\trequire(check_bid (_itemId, _bidAmt),\"Bid is lower or equal to the highest bid value\"); // the bid should be higher or equal to the current\n\t\t\n\t\trequire(check_increment (_itemId, _bidAmt),\"Bid is not enough based on minimum increment\"); // make sure that the increment is greater than or equal to the minimum increment for the auction item\n\n\t\trequire(check_highest_bidder(_itemId, msg.sender), \"Person bidding is the highest bidder\"); // make sure that person bidding isn't already highest bidder\n\n        vehicles[_itemId].offer_price = _bidAmt; // replace the current price with the new bid amount\n\t\thighestBidders[_itemId] = msg.sender; // replace the highest bidder for that item id with the new highest bidder\n\n\t\temit BidEvent(_itemId, _bidAmt); // logs the bid event on ethereum EVM\n\n        return _itemId; // return the item back \t\n\n    }\n\n\n    // Function to check if the bid is greater than highest bid\n\tfunction check_bid (uint _itemId, uint _bidAmt) public view returns (bool) {\n\t\tif (_bidAmt > vehicles[_itemId].offer_price) return true;\n\t\telse return false;\n\t}\n\t\n\t\n    // Function to check if the difference is greater to minimum increment value\n\tfunction check_increment (uint _itemId, uint _bidAmt) public view returns (bool) {\n\t\tuint diff;\n\n\t\tdiff = _bidAmt - vehicles[_itemId].offer_price;\n\t\tif (diff >= vehicles[_itemId].min_incr) return true;\n\t\telse return false;\n\t}\n\t\n\n\t// Function to check if person bidding is the highest bidder\n\tfunction check_highest_bidder (uint _itemId, address person_wallet) public view returns (bool) {\n\t\tif (person_wallet == highestBidders[_itemId]) {\n\t\t\treturn false;\n\t\t} else {\n\t\t\treturn true;\n\t\t}\n\t}\n\n}\n",
  "sourcePath": "/Users/zijianchen/Desktop/final/contracts/Adoption.sol",
  "compiler": {
    "name": "solc",
    "version": "0.5.16+commit.9c3226ce.Emscripten.clang"
  },
  "schemaVersion": "3.4.4",
  "updatedAt": "2022-04-26T01:07:48.050Z",
  "networkType": "ethereum",
  "devdoc": {
    "methods": {}
  },
  "userdoc": {
    "methods": {}
  }
}