{
  "contractName": "auto_trade",
  "abi": [
    {
      "inputs": [],
      "payable": false,
      "stateMutability": "nonpayable",
      "type": "constructor"
    },
    {
      "anonymous": false,
      "inputs": [
        {
          "indexed": false,
          "internalType": "uint256",
          "name": "_itemId",
          "type": "uint256"
        },
        {
          "indexed": true,
          "internalType": "uint256",
          "name": "_bidAmt",
          "type": "uint256"
        }
      ],
      "name": "BidEvent",
      "type": "event"
    },
    {
      "constant": true,
      "inputs": [
        {
          "internalType": "uint256",
          "name": "",
          "type": "uint256"
        }
      ],
      "name": "arrayForItems",
      "outputs": [
        {
          "internalType": "uint256",
          "name": "",
          "type": "uint256"
        }
      ],
      "payable": false,
      "stateMutability": "view",
      "type": "function"
    },
    {
      "constant": true,
      "inputs": [
        {
          "internalType": "uint256",
          "name": "",
          "type": "uint256"
        }
      ],
      "name": "buyers",
      "outputs": [
        {
          "internalType": "address",
          "name": "",
          "type": "address"
        }
      ],
      "payable": false,
      "stateMutability": "view",
      "type": "function"
    },
    {
      "constant": true,
      "inputs": [
        {
          "internalType": "uint256",
          "name": "",
          "type": "uint256"
        }
      ],
      "name": "highestBidders",
      "outputs": [
        {
          "internalType": "address",
          "name": "",
          "type": "address"
        }
      ],
      "payable": false,
      "stateMutability": "view",
      "type": "function"
    },
    {
      "constant": true,
      "inputs": [],
      "name": "itemId",
      "outputs": [
        {
          "internalType": "uint256",
          "name": "",
          "type": "uint256"
        }
      ],
      "payable": false,
      "stateMutability": "view",
      "type": "function"
    },
    {
      "constant": true,
      "inputs": [
        {
          "internalType": "uint256",
          "name": "",
          "type": "uint256"
        }
      ],
      "name": "vehicles",
      "outputs": [
        {
          "internalType": "string",
          "name": "vehicle_brand",
          "type": "string"
        },
        {
          "internalType": "string",
          "name": "vehicle_model",
          "type": "string"
        },
        {
          "internalType": "string",
          "name": "description",
          "type": "string"
        },
        {
          "internalType": "uint256",
          "name": "buy_now_price",
          "type": "uint256"
        },
        {
          "internalType": "uint256",
          "name": "starting_price",
          "type": "uint256"
        },
        {
          "internalType": "uint256",
          "name": "min_incr",
          "type": "uint256"
        },
        {
          "internalType": "uint256",
          "name": "offer_price",
          "type": "uint256"
        }
      ],
      "payable": false,
      "stateMutability": "view",
      "type": "function"
    },
    {
      "constant": false,
      "inputs": [
        {
          "internalType": "uint256",
          "name": "vehicleId",
          "type": "uint256"
        }
      ],
      "name": "pay_fullprice",
      "outputs": [
        {
          "internalType": "uint256",
          "name": "",
          "type": "uint256"
        }
      ],
      "payable": false,
      "stateMutability": "nonpayable",
      "type": "function"
    },
    {
      "constant": true,
      "inputs": [],
      "name": "getBuyers",
      "outputs": [
        {
          "internalType": "address[16]",
          "name": "",
          "type": "address[16]"
        }
      ],
      "payable": false,
      "stateMutability": "view",
      "type": "function"
    },
    {
      "constant": true,
      "inputs": [],
      "name": "getItemCount",
      "outputs": [
        {
          "internalType": "uint256",
          "name": "",
          "type": "uint256"
        }
      ],
      "payable": false,
      "stateMutability": "pure",
      "type": "function"
    },
    {
      "constant": true,
      "inputs": [
        {
          "internalType": "uint256",
          "name": "_itemId",
          "type": "uint256"
        }
      ],
      "name": "getItemName",
      "outputs": [
        {
          "internalType": "string",
          "name": "",
          "type": "string"
        }
      ],
      "payable": false,
      "stateMutability": "view",
      "type": "function"
    },
    {
      "constant": true,
      "inputs": [
        {
          "internalType": "uint256",
          "name": "_itemId",
          "type": "uint256"
        }
      ],
      "name": "getItemPrice",
      "outputs": [
        {
          "internalType": "uint256",
          "name": "",
          "type": "uint256"
        }
      ],
      "payable": false,
      "stateMutability": "view",
      "type": "function"
    },
    {
      "constant": true,
      "inputs": [
        {
          "internalType": "uint256",
          "name": "_itemId",
          "type": "uint256"
        }
      ],
      "name": "getItemIncrement",
      "outputs": [
        {
          "internalType": "uint256",
          "name": "",
          "type": "uint256"
        }
      ],
      "payable": false,
      "stateMutability": "view",
      "type": "function"
    },
    {
      "constant": true,
      "inputs": [
        {
          "internalType": "uint256",
          "name": "_itemId",
          "type": "uint256"
        }
      ],
      "name": "getPercentIncrease",
      "outputs": [
        {
          "internalType": "uint256",
          "name": "",
          "type": "uint256"
        }
      ],
      "payable": false,
      "stateMutability": "view",
      "type": "function"
    },
    {
      "constant": false,
      "inputs": [
        {
          "internalType": "uint256",
          "name": "_itemId",
          "type": "uint256"
        },
        {
          "internalType": "uint256",
          "name": "_bidAmt",
          "type": "uint256"
        }
      ],
      "name": "placeBid",
      "outputs": [
        {
          "internalType": "uint256",
          "name": "",
          "type": "uint256"
        }
      ],
      "payable": false,
      "stateMutability": "nonpayable",
      "type": "function"
    },
    {
      "constant": true,
      "inputs": [
        {
          "internalType": "uint256",
          "name": "_itemId",
          "type": "uint256"
        },
        {
          "internalType": "uint256",
          "name": "_bidAmt",
          "type": "uint256"
        }
      ],
      "name": "check_bid",
      "outputs": [
        {
          "internalType": "bool",
          "name": "",
          "type": "bool"
        }
      ],
      "payable": false,
      "stateMutability": "view",
      "type": "function"
    },
    {
      "constant": true,
      "inputs": [
        {
          "internalType": "uint256",
          "name": "_itemId",
          "type": "uint256"
        },
        {
          "internalType": "uint256",
          "name": "_bidAmt",
          "type": "uint256"
        }
      ],
      "name": "check_increment",
      "outputs": [
        {
          "internalType": "bool",
          "name": "",
          "type": "bool"
        }
      ],
      "payable": false,
      "stateMutability": "view",
      "type": "function"
    },
    {
      "constant": true,
      "inputs": [
        {
          "internalType": "uint256",
          "name": "_itemId",
          "type": "uint256"
        },
        {
          "internalType": "address",
          "name": "person_wallet",
          "type": "address"
        }
      ],
      "name": "check_highest_bidder",
      "outputs": [
        {
          "internalType": "bool",
          "name": "",
          "type": "bool"
        }
      ],
      "payable": false,
      "stateMutability": "view",
      "type": "function"
    },
    {
      "constant": true,
      "inputs": [],
      "name": "getArrayOfPrices",
      "outputs": [
        {
          "internalType": "uint256[4]",
          "name": "",
          "type": "uint256[4]"
        }
      ],
      "payable": false,
      "stateMutability": "view",
      "type": "function"
    },
    {
      "constant": true,
      "inputs": [],
      "name": "getArrayOfIncreases",
      "outputs": [
        {
          "internalType": "uint256[4]",
          "name": "",
          "type": "uint256[4]"
        }
      ],
      "payable": false,
      "stateMutability": "view",
      "type": "function"
    },
    {
      "constant": true,
      "inputs": [],
      "name": "getArrayOfIncrements",
      "outputs": [
        {
          "internalType": "uint256[4]",
          "name": "",
          "type": "uint256[4]"
        }
      ],
      "payable": false,
      "stateMutability": "view",
      "type": "function"
    }
  ],
  "bytecode": "0x608060405260006014553480156200001657600080fd5b50620000d16040518060400160405280600381526020017f424d5700000000000000000000000000000000000000000000000000000000008152506040518060400160405280600281526020017f4d320000000000000000000000000000000000000000000000000000000000008152506040518060400160405280600e81526020017f6e65656420696e666f206865726500000000000000000000000000000000000081525060286014600260146200076960201b60201c565b6200018c6040518060400160405280600881526020017f4d657263656465730000000000000000000000000000000000000000000000008152506040518060400160405280600381526020017f47545200000000000000000000000000000000000000000000000000000000008152506040518060400160405280600e81526020017f6e65656420696e666f206865726500000000000000000000000000000000000081525061019060c8601460c86200076960201b60201c565b620002476040518060400160405280600581526020017f486f6e64610000000000000000000000000000000000000000000000000000008152506040518060400160405280600c81526020017f436976696320547970652d5200000000000000000000000000000000000000008152506040518060400160405280600e81526020017f6e65656420696e666f206865726500000000000000000000000000000000000081525061012c6096602360966200076960201b60201c565b620003026040518060400160405280600a81526020017f566f6c6b73776167656e000000000000000000000000000000000000000000008152506040518060400160405280600881526020017f476f6c66206774690000000000000000000000000000000000000000000000008152506040518060400160405280600e81526020017f6e65656420696e666f206865726500000000000000000000000000000000000081525061012c6096602360966200076960201b60201c565b620003bc6040518060400160405280600381526020017f424d5700000000000000000000000000000000000000000000000000000000008152506040518060400160405280600281526020017f4d330000000000000000000000000000000000000000000000000000000000008152506040518060400160405280600e81526020017f6e65656420696e666f206865726500000000000000000000000000000000000081525060286014600260146200076960201b60201c565b620004776040518060400160405280600881526020017f4d657263656465730000000000000000000000000000000000000000000000008152506040518060400160405280600381526020017f63363300000000000000000000000000000000000000000000000000000000008152506040518060400160405280600e81526020017f6e65656420696e666f206865726500000000000000000000000000000000000081525061019060c8601460c86200076960201b60201c565b620005326040518060400160405280600581526020017f486f6e64610000000000000000000000000000000000000000000000000000008152506040518060400160405280600581526020017f73323030300000000000000000000000000000000000000000000000000000008152506040518060400160405280600e81526020017f6e65656420696e666f206865726500000000000000000000000000000000000081525061012c6096602360966200076960201b60201c565b620005ed6040518060400160405280600a81526020017f566f6c6b73776167656e000000000000000000000000000000000000000000008152506040518060400160405280600681526020017f476f6c66207200000000000000000000000000000000000000000000000000008152506040518060400160405280600e81526020017f6e65656420696e666f206865726500000000000000000000000000000000000081525061012c6096602360966200076960201b60201c565b620006a86040518060400160405280600481526020017f466f7264000000000000000000000000000000000000000000000000000000008152506040518060400160405280600481526020017f66313530000000000000000000000000000000000000000000000000000000008152506040518060400160405280600e81526020017f6e65656420696e666f206865726500000000000000000000000000000000000081525061012c6096602360966200076960201b60201c565b620007636040518060400160405280600381526020017f52616d00000000000000000000000000000000000000000000000000000000008152506040518060400160405280600481526020017f31353030000000000000000000000000000000000000000000000000000000008152506040518060400160405280600e81526020017f6e65656420696e666f206865726500000000000000000000000000000000000081525061012c6096602360966200076960201b60201c565b62000958565b6040518060e00160405280888152602001878152602001868152602001858152602001848152602001838152602001828152506015600060145481526020019081526020016000206000820151816000019080519060200190620007cf929190620008a9565b506020820151816001019080519060200190620007ee929190620008a9565b5060408201518160020190805190602001906200080d929190620008a9565b50606082015181600301556080820151816004015560a0820151816005015560c08201518160060155905050600060166000601454815260200190815260200160002060006101000a81548173ffffffffffffffffffffffffffffffffffffffff021916908373ffffffffffffffffffffffffffffffffffffffff16021790555060146000815480929190600101919050555050505050505050565b828054600181600116156101000203166002900490600052602060002090601f016020900481019282601f10620008ec57805160ff19168380011785556200091d565b828001600101855582156200091d579182015b828111156200091c578251825591602001919060010190620008ff565b5b5090506200092c919062000930565b5090565b6200095591905b808211156200095157600081600090555060010162000937565b5090565b90565b61155980620009686000396000f3fe608060405234801561001057600080fd5b50600436106101215760003560e01c8063a14acf00116100ad578063d945db0b11610071578063d945db0b14610655578063d9561a9114610697578063eebcd7311461073e578063f2aa821814610780578063f64bfaba146107ee57610121565b8063a14acf00146103c4578063acad076314610414578063b8ba95fa1461045a578063ca6158cb146105f5578063cd1491d21461061357610121565b806357c90de5116100f457806357c90de5146102645780635d45a7a1146102b05780635d8d55c9146102f257806377484aae146103385780637749cf23146103a657610121565b806319cb45e6146101265780631c6076bb1461016c57806349a027f6146101bc5780634c4df87014610222575b600080fd5b61012e610834565b6040518082600460200280838360005b8381101561015957808201518184015260208101905061013e565b5050505090500191505060405180910390f35b6101a26004803603604081101561018257600080fd5b810190808035906020019092919080359060200190929190505050610909565b604051808215151515815260200191505060405180910390f35b610208600480360360408110156101d257600080fd5b8101908080359060200190929190803573ffffffffffffffffffffffffffffffffffffffff16906020019092919050505061093d565b604051808215151515815260200191505060405180910390f35b61024e6004803603602081101561023857600080fd5b81019080803590602001909291905050506109ba565b6040518082815260200191505060405180910390f35b61029a6004803603604081101561027a57600080fd5b810190808035906020019092919080359060200190929190505050610a5c565b6040518082815260200191505060405180910390f35b6102dc600480360360208110156102c657600080fd5b8101908080359060200190929190505050610cab565b6040518082815260200191505060405180910390f35b6102fa610d4d565b6040518082600460200280838360005b8381101561032557808201518184015260208101905061030a565b5050505090500191505060405180910390f35b6103646004803603602081101561034e57600080fd5b8101908080359060200190929190505050610e22565b604051808273ffffffffffffffffffffffffffffffffffffffff1673ffffffffffffffffffffffffffffffffffffffff16815260200191505060405180910390f35b6103ae610e55565b6040518082815260200191505060405180910390f35b6103fa600480360360408110156103da57600080fd5b810190808035906020019092919080359060200190929190505050610e5e565b604051808215151515815260200191505060405180910390f35b61041c610eaf565b6040518082600460200280838360005b8381101561044757808201518184015260208101905061042c565b5050505090500191505060405180910390f35b6104866004803603602081101561047057600080fd5b8101908080359060200190929190505050610f84565b6040518080602001806020018060200188815260200187815260200186815260200185815260200184810384528b818151815260200191508051906020019080838360005b838110156104e65780820151818401526020810190506104cb565b50505050905090810190601f1680156105135780820380516001836020036101000a031916815260200191505b5084810383528a818151815260200191508051906020019080838360005b8381101561054c578082015181840152602081019050610531565b50505050905090810190601f1680156105795780820380516001836020036101000a031916815260200191505b50848103825289818151815260200191508051906020019080838360005b838110156105b2578082015181840152602081019050610597565b50505050905090810190601f1680156105df5780820380516001836020036101000a031916815260200191505b509a505050505050505050505060405180910390f35b6105fd61118e565b6040518082815260200191505060405180910390f35b61063f6004803603602081101561062957600080fd5b8101908080359060200190929190505050611194565b6040518082815260200191505060405180910390f35b6106816004803603602081101561066b57600080fd5b8101908080359060200190929190505050611205565b6040518082815260200191505060405180910390f35b6106c3600480360360208110156106ad57600080fd5b810190808035906020019092919050505061121d565b6040518080602001828103825283818151815260200191508051906020019080838360005b838110156107035780820151818401526020810190506106e8565b50505050905090810190601f1680156107305780820380516001836020036101000a031916815260200191505b509250505060405180910390f35b61076a6004803603602081101561075457600080fd5b8101908080359060200190929190505050611358565b6040518082815260200191505060405180910390f35b6107ac6004803603602081101561079657600080fd5b81019080803590602001909291905050506113ad565b604051808273ffffffffffffffffffffffffffffffffffffffff1673ffffffffffffffffffffffffffffffffffffffff16815260200191505060405180910390f35b6107f66113e0565b6040518082601060200280838360005b83811015610821578082015181840152602081019050610806565b5050505090500191505060405180910390f35b61083c611461565b610844611461565b60008090505b6004811015610901573073ffffffffffffffffffffffffffffffffffffffff16635d45a7a1826040518263ffffffff1660e01b81526004018082815260200191505060206040518083038186803b1580156108a457600080fd5b505afa1580156108b8573d6000803e3d6000fd5b505050506040513d60208110156108ce57600080fd5b81019080805190602001909291905050508282600481106108eb57fe5b602002018181525050808060010191505061084a565b508091505090565b600060156000848152602001908152602001600020600601548211156109325760019050610937565b600090505b92915050565b60006016600084815260200190815260200160002060009054906101000a900473ffffffffffffffffffffffffffffffffffffffff1673ffffffffffffffffffffffffffffffffffffffff168273ffffffffffffffffffffffffffffffffffffffff1614156109af57600090506109b4565b600190505b92915050565b60008082101580156109cc5750600482105b610a3e576040517f08c379a00000000000000000000000000000000000000000000000000000000081526004018080602001828103825260138152602001807f4974656d20646f6573206e6f742065786973740000000000000000000000000081525060200191505060405180910390fd5b60156000838152602001908152602001600020600601549050919050565b6000808310158015610a6e5750600483105b610ae0576040517f08c379a000000000000000000000000000000000000000000000000000000000815260040180806020018281038252601a8152602001807f42696464696e67206f6e20616e20696e76616c6964206974656d00000000000081525060200191505060405180910390fd5b610aea8383610909565b610b3f576040517f08c379a000000000000000000000000000000000000000000000000000000000815260040180806020018281038252602e8152602001806114f7602e913960400191505060405180910390fd5b610b498383610e5e565b610b9e576040517f08c379a000000000000000000000000000000000000000000000000000000000815260040180806020018281038252602c8152602001806114a7602c913960400191505060405180910390fd5b610ba8833361093d565b610bfd576040517f08c379a00000000000000000000000000000000000000000000000000000000081526004018080602001828103825260248152602001806114d36024913960400191505060405180910390fd5b816015600085815260200190815260200160002060060181905550336016600085815260200190815260200160002060006101000a81548173ffffffffffffffffffffffffffffffffffffffff021916908373ffffffffffffffffffffffffffffffffffffffff160217905550817f7b0140573d213f42228ee5bf51487a8b9a9e85e0f8d61506811f7af74afcddc8846040518082815260200191505060405180910390a282905092915050565b6000808210158015610cbd5750600482105b610d2f576040517f08c379a00000000000000000000000000000000000000000000000000000000081526004018080602001828103825260138152602001807f4974656d20646f6573206e6f742065786973740000000000000000000000000081525060200191505060405180910390fd5b60156000838152602001908152602001600020600501549050919050565b610d55611461565b610d5d611461565b60008090505b6004811015610e1a573073ffffffffffffffffffffffffffffffffffffffff16634c4df870826040518263ffffffff1660e01b81526004018082815260200191505060206040518083038186803b158015610dbd57600080fd5b505afa158015610dd1573d6000803e3d6000fd5b505050506040513d6020811015610de757600080fd5b8101908080519060200190929190505050828260048110610e0457fe5b6020020181815250508080600101915050610d63565b508091505090565b60166020528060005260406000206000915054906101000a900473ffffffffffffffffffffffffffffffffffffffff1681565b60006004905090565b60008060156000858152602001908152602001600020600601548303905060156000858152602001908152602001600020600501548110610ea3576001915050610ea9565b60009150505b92915050565b610eb7611461565b610ebf611461565b60008090505b6004811015610f7c573073ffffffffffffffffffffffffffffffffffffffff1663eebcd731826040518263ffffffff1660e01b81526004018082815260200191505060206040518083038186803b158015610f1f57600080fd5b505afa158015610f33573d6000803e3d6000fd5b505050506040513d6020811015610f4957600080fd5b8101908080519060200190929190505050828260048110610f6657fe5b6020020181815250508080600101915050610ec5565b508091505090565b6015602052806000526040600020600091509050806000018054600181600116156101000203166002900480601f0160208091040260200160405190810160405280929190818152602001828054600181600116156101000203166002900480156110305780601f1061100557610100808354040283529160200191611030565b820191906000526020600020905b81548152906001019060200180831161101357829003601f168201915b505050505090806001018054600181600116156101000203166002900480601f0160208091040260200160405190810160405280929190818152602001828054600181600116156101000203166002900480156110ce5780601f106110a3576101008083540402835291602001916110ce565b820191906000526020600020905b8154815290600101906020018083116110b157829003601f168201915b505050505090806002018054600181600116156101000203166002900480601f01602080910402602001604051908101604052809291908181526020018280546001816001161561010002031660029004801561116c5780601f106111415761010080835404028352916020019161116c565b820191906000526020600020905b81548152906001019060200180831161114f57829003601f168201915b5050505050908060030154908060040154908060050154908060060154905087565b60145481565b60008082101580156111a75750600f8211155b6111b057600080fd5b33600083601081106111be57fe5b0160006101000a81548173ffffffffffffffffffffffffffffffffffffffff021916908373ffffffffffffffffffffffffffffffffffffffff160217905550819050919050565b6010816004811061121257fe5b016000915090505481565b6060600082101580156112305750600482105b6112a2576040517f08c379a00000000000000000000000000000000000000000000000000000000081526004018080602001828103825260138152602001807f4974656d20646f6573206e6f742065786973740000000000000000000000000081525060200191505060405180910390fd5b601560008381526020019081526020016000206001018054600181600116156101000203166002900480601f01602080910402602001604051908101604052809291908181526020018280546001816001161561010002031660029004801561134c5780601f106113215761010080835404028352916020019161134c565b820191906000526020600020905b81548152906001019060200180831161132f57829003601f168201915b50505050509050919050565b600080601560008481526020019081526020016000206006015490506000601560008581526020019081526020016000206004015490506000816064838503028161139f57fe5b049050809350505050919050565b600081601081106113ba57fe5b016000915054906101000a900473ffffffffffffffffffffffffffffffffffffffff1681565b6113e8611483565b6000601080602002604051908101604052809291908260108015611457576020028201915b8160009054906101000a900473ffffffffffffffffffffffffffffffffffffffff1673ffffffffffffffffffffffffffffffffffffffff168152602001906001019080831161140d575b5050505050905090565b6040518060800160405280600490602082028038833980820191505090505090565b60405180610200016040528060109060208202803883398082019150509050509056fe426964206973206e6f7420656e6f756768206261736564206f6e206d696e696d756d20696e6372656d656e74506572736f6e2062696464696e6720697320746865206869676865737420626964646572426964206973206c6f776572206f7220657175616c20746f207468652068696768657374206269642076616c7565a265627a7a723158208b203b758469776e9a74b62d453546aa04ea5d8dd967e9543374d44c5db6587364736f6c63430005100032",
  "source": "pragma solidity ^0.5.0;\n\ncontract auto_trade{\n    address[16] public buyers; // array of ethereum addresses\n    uint constant itemCount = 4;\n    uint[itemCount] public arrayForItems;\n\tuint public itemId = 0;\n    mapping(uint => Item) public vehicles; // item hash table\n    mapping(uint => address) public highestBidders; // highest bidders hash table \n    event BidEvent(uint _itemId, uint indexed _bidAmt); // Declaring events which help us use ethereum's logging facility\n\n    struct Item{\t\t\t\n        string vehicle_brand; // vehicle's brand\n\t\tstring vehicle_model; // which specific model is this vehicle\n        string description; // information about a vehicle, e.g. production year, mileage\n        uint buy_now_price;\n\t\tuint starting_price; // starting price\n\t\tuint min_incr; // minimum increment for a bid\n\t\tuint offer_price;  // current price of item\n\t}\n    constructor() public {\t\n\t\taddItem(\"BMW\", \"M2\", \"need info here\", 40, 20, 2, 20);\n\t\taddItem(\"Mercedes\", \"GTR\", \"need info here\", 400, 200, 20, 200);\n\t\taddItem(\"Honda\", \"Civic Type-R\", \"need info here\", 300, 150, 35, 150);\n\t\taddItem(\"Volkswagen\", \"Golf gti\", \"need info here\", 300, 150, 35, 150);\n        addItem(\"BMW\", \"M3\", \"need info here\", 40, 20, 2, 20);\n\t\taddItem(\"Mercedes\", \"c63\", \"need info here\", 400, 200, 20, 200);\n\t\taddItem(\"Honda\", \"s2000\", \"need info here\", 300, 150, 35, 150);\n\t\taddItem(\"Volkswagen\", \"Golf r\", \"need info here\", 300, 150, 35, 150);\n        addItem(\"Ford\", \"f150\", \"need info here\", 300, 150, 35, 150);\n        addItem(\"Ram\", \"1500\", \"need info here\", 300, 150, 35, 150);\n\t}\n    function addItem (string memory vehicle_brand, string memory vehicle_model, string memory description, uint buy_now_price, uint starting_price, uint min_incr, uint offer_price) private { \t\n\t\tvehicles[itemId] = Item(vehicle_brand, vehicle_model, description, buy_now_price, starting_price, min_incr, offer_price);\n\t\thighestBidders[itemId] = address(0);\n\t\titemId ++;\n\t}\n\n    function pay_fullprice(uint vehicleId) public returns (uint){\n     // taking an integer petId, and return an integer\n     require(vehicleId >= 0 && vehicleId <=15); // use require() to make sure ID is in range.\n\n     buyers[vehicleId] = msg.sender; // mes.sender is the person called this function\n\n     return vehicleId; // send petId back as confirmation\n     }\n\n    function getBuyers() public view returns (address[16] memory){\n     // memory gives the data loation for the variable, \"adopers\" is in memory\n     return buyers;\n    }\n\n    function getItemCount () public pure returns (uint) {\n\t\treturn itemCount;\n\t}\n\t\n\n\t// Function to get the name of an item using its item id\n\tfunction getItemName (uint _itemId) public view returns (string memory) {\n\t\trequire(_itemId >= 0 && _itemId < itemCount, \"Item does not exist\"); // the item id must be greater than 0 but less or equal to the total count\n\n\t\treturn vehicles[_itemId].vehicle_model;\n\t}\n\n\n\t// Function to get the highest current price of an item using its item id\n\tfunction getItemPrice (uint _itemId) public view returns (uint) {\n\t\trequire(_itemId >= 0 && _itemId < itemCount, \"Item does not exist\"); // the item id must be greater than 0 but less or equal to the total count\n\n\t\treturn vehicles[_itemId].offer_price;\n\t}\n\t\n\n\t// Function to get the min_increment of an item using its item id\n\tfunction getItemIncrement (uint _itemId) public view returns (uint) {\n\t\trequire(_itemId >= 0 && _itemId < itemCount, \"Item does not exist\"); // the item id must be greater than 0 but less or equal to the total count\n\n\t\treturn vehicles[_itemId].min_incr;\n\t}\n\n    function getPercentIncrease (uint _itemId) public view returns (uint) {\n\t\tuint auctionPrice = vehicles[_itemId].offer_price;\n\t\tuint basePrice = vehicles[_itemId].starting_price;\n\t\tuint percentIncrease = (auctionPrice - basePrice)*100/basePrice;\n\n\t\treturn percentIncrease;\n\t}\n\n  // Function to place a bid\n    function placeBid (uint _itemId, uint _bidAmt) public returns (uint) {\n        // Requirements \n\t\trequire(_itemId >= 0 && _itemId < itemCount, \"Bidding on an invalid item\"); // the item id must be greater than 0 but less than the total count\n\t\t\n\t\trequire(check_bid (_itemId, _bidAmt),\"Bid is lower or equal to the highest bid value\"); // the bid should be higher or equal to the current\n\t\t\n\t\trequire(check_increment (_itemId, _bidAmt),\"Bid is not enough based on minimum increment\"); // make sure that the increment is greater than or equal to the minimum increment for the auction item\n\n\t\trequire(check_highest_bidder(_itemId, msg.sender), \"Person bidding is the highest bidder\"); // make sure that person bidding isn't already highest bidder\n\n        vehicles[_itemId].offer_price = _bidAmt; // replace the current price with the new bid amount\n\t\thighestBidders[_itemId] = msg.sender; // replace the highest bidder for that item id with the new highest bidder\n\n\t\temit BidEvent(_itemId, _bidAmt); // logs the bid event on ethereum EVM\n\n        return _itemId; // return the item back \t\n    }\n\n\n    // Function to check if the bid is greater than highest bid\n\tfunction check_bid (uint _itemId, uint _bidAmt) public view returns (bool) {\n\t\tif (_bidAmt > vehicles[_itemId].offer_price) return true;\n\t\telse return false;\n\t}\n\t\n\t\n    // Function to check if the difference is greater to minimum increment value\n\tfunction check_increment (uint _itemId, uint _bidAmt) public view returns (bool) {\n\t\tuint diff;\n\t\tdiff = _bidAmt - vehicles[_itemId].offer_price;\n\t\tif (diff >= vehicles[_itemId].min_incr) return true;\n\t\telse return false;\n\t}\n\t\n\n\t// Function to check if person bidding is the highest bidder\n\tfunction check_highest_bidder (uint _itemId, address person_wallet) public view returns (bool) {\n\t\tif (person_wallet == highestBidders[_itemId]) {\n\t\t\treturn false;\n\t\t} else {\n\t\t\treturn true;\n\t\t}\n\t}\n\n\t// Function to get array of prices of all items in auction as an array\n\tfunction getArrayOfPrices () public view returns (uint[itemCount] memory) {\n        uint[itemCount] memory resultArray;\n        for (uint i=0;i < itemCount; i++) {\n            resultArray[i] = this.getItemPrice(i);\n        }\n\t\treturn resultArray;\n\t}\n\n\n\t// Function to get array of increase in percentages of all items in auction as an array\n\tfunction getArrayOfIncreases () public view returns (uint[itemCount] memory) {\n\t\tuint[itemCount] memory resultArray;\n        for (uint i=0;i < itemCount; i++) {\n            resultArray[i] = this.getPercentIncrease(i);\n        }\n\t\treturn resultArray;\n\t}\n\n\n\t// Function to get array of increments of all items in auction as an array\n\tfunction getArrayOfIncrements () public view returns (uint[itemCount] memory) {\n\t\tuint[itemCount] memory resultArray;\n        for (uint i=0;i < itemCount; i++) {\n            resultArray[i] = this.getItemIncrement(i);\n        }\n\t\treturn resultArray;\n\t}\n\n}\n",
  "sourcePath": "/Users/zijianchen/pet-shop-tutorial/contracts/Adoption.sol",
  "compiler": {
    "name": "solc",
    "version": "0.5.16+commit.9c3226ce.Emscripten.clang"
  },
  "schemaVersion": "3.4.4",
  "updatedAt": "2022-04-22T05:38:53.094Z",
  "devdoc": {
    "methods": {}
  },
  "userdoc": {
    "methods": {}
  }
}